:020000040800F2
:1000000000000320B520000831200008332000083C
:1000100035200008372000083920000800000000C3
:100020000000000000000000000000003B2000086D
:100030003D200008000000003F200008412000088B
:100040008D8100080521000805210008D5850008DC
:100050000521000805210008854000080521000849
:100060008F4000089940000805210008052100087C
:1000700005210008052100080521000805210008C8
:1000800005210008052100080521000805210008B8
:1000900005210008052100080521000805210008A8
:1000A0000521000805210008052100080521000898
:1000B00005210008518800084D7800080521000836
:1000C0000521000805210008052100080521000878
:1000D00005210008052100086188000805210008A5
:1000E000A3400008C185000805210008052100087B
:1000F0000521000805210008052100080521000848
:1001000005210008052100089D810008052100083F
:100110000521000805210008052100080521000827
:100120000521000805210008052100080521000817
:100130000521000805210008052100080521000807
:1001400005210008052100080521000805210008F7
:1001500005210008052100080521000805210008E7
:1001600005210008052100080521000805210008D7
:1001700005210008052100080521000800000000F5
:1001800005210008052100080521000805210008B7
:1001900005210008052100080521000805210008A7
:0C01A000052100080521000805210008C9
:1001C00010B5054C237833B9044B13B10448AFF391
:1001D00000800123237010BD100B002000000000E0
:1001E000D007010808B5034B1BB103490348AFF31F
:1001F000008008BD00000000140B0020D00701089B
:1002000081F0004102E000BF83F0004330B54FEAC7
:1002100041044FEA430594EA050F08BF90EA020F34
:100220001FBF54EA000C55EA020C7FEA645C7FEAC7
:10023000655C00F0E2804FEA5454D4EB5555B8BFEA
:100240006D420CDD2C4480EA020281EA030382EA5B
:10025000000083EA010180EA020281EA0303362DED
:1002600088BF30BD11F0004F4FEA01314FF4801CC0
:100270004CEA113102D0404261EB410113F0004FD2
:100280004FEA03334CEA133302D0524263EB430389
:1002900094EA050F00F0A780A4F10104D5F1200E27
:1002A0000DDB02FA0EFC22FA05F2801841F1000182
:1002B00003FA0EF2801843FA05F359410EE0A5F156
:1002C00020050EF1200E012A03FA0EFC28BF4CF087
:1002D000020C43FA05F3C01851EBE37101F000453D
:1002E00007D54FF0000EDCF1000C7EEB00006EEB4A
:1002F0000101B1F5801F1BD3B1F5001F0CD34908D4
:100300005FEA30004FEA3C0C04F101044FEA44522A
:1003100012F5800F80F09A80BCF1004F08BF5FEAB1
:10032000500C50F1000041EB045141EA050130BD91
:100330005FEA4C0C404141EB0101013C28BFB1F5A3
:10034000801FE9D291F0000F04BF01460020B1FAEE
:1003500081F308BF2033A3F10B03B3F120020CDAC1
:100360000C3208DD02F1140CC2F10C0201FA0CF09F
:1003700021FA02F10CE002F11402D8BFC2F1200C04
:1003800001FA02F120FA0CFCDCBF41EA0C019040BA
:10039000E41AA2BF01EB0451294330BD6FEA040403
:1003A0001F3C1CDA0C340EDC04F11404C4F12002EE
:1003B00020FA04F001FA02F340EA030021FA04F300
:1003C00045EA030130BDC4F10C04C4F1200220FA57
:1003D00002F001FA04F340EA0300294630BD21FA95
:1003E00004F0294630BD94F0000F83F4801306BF5B
:1003F00081F480110134013D4EE77FEA645C18BF4F
:100400007FEA655C29D094EA050F08BF90EA020FE5
:1004100005D054EA000C04BF1946104630BD91EADD
:10042000030F1EBF0021002030BD5FEA545C05D1E0
:100430004000494128BF41F0004130BD14F580041F
:100440003CBF01F5801130BD01F0004545F0FE4193
:1004500041F470014FF0000030BD7FEA645C1ABFC8
:10046000194610467FEA655C1CBF0B46024650EAFF
:10047000013406BF52EA033591EA030F41F400212B
:1004800030BD00BF90F0000F04BF0021704730B5B1
:100490004FF4806404F132044FF000054FF0000186
:1004A00050E700BF90F0000F04BF0021704730B547
:1004B0004FF4806404F1320410F0004548BF40421C
:1004C0004FF000013EE700BF42004FEAE2014FEA71
:1004D00031014FEA02701FBF12F07F4393F07F4F4C
:1004E00081F06051704732F07F4208BF704793F04F
:1004F0007F4F04BF41F40021704730B54FF4607462
:1005000001F0004521F000411CE700BF50EA010264
:1005100008BF704730B54FF000050AE050EA01020D
:1005200008BF704730B511F0004502D5404261EB7D
:1005300041014FF4806404F132045FEA915C3FF4BE
:10054000D8AE4FF003025FEADC0C18BF03325FEA5B
:10055000DC0C18BF033202EBDC02C2F1200300FA0C
:1005600003FC20FA02F001FA03FE40EA0E0021FA31
:1005700002F11444BDE600BF4A0011D212F5001288
:1005800011D20DD56FF47873B3EB62520ED44FEAEB
:10059000C12343F0004343EA505323FA02F070476B
:1005A0004FF00000704750EA013002D14FF0FF30A9
:1005B00070474FF00000704753B94AB9002908BF8F
:1005C00000281CBF4FF0FF314FF0FF3001F0DEB8C4
:1005D000ADF1080C6DE904CE00F006F8DDF804E09A
:1005E000DDE9022304B070472DE9F047089E0D466F
:1005F00004468846002B4DD18A42944668D9B2FA07
:1006000082F252B101FA02F3C2F1200120FA01F1A3
:100610000CFA02FC41EA030894404FEA1C45210C05
:10062000B8FBF5FE1FFA8CF705FB1E8341EA034376
:100630000EFB07F199420BD91CEB03030EF1FF30BF
:1006400080F01E81994240F21B81AEF1020E63449C
:100650005B1AA4B2B3FBF5F005FB103344EA034484
:1006600000FB07F7A7420AD91CEB040400F1FF3393
:1006700080F00881A74240F2058164440238E41BFF
:1006800040EA0E4000211EB1D4400023C6E90043D9
:10069000BDE8F0878B4208D9002E00F0EE800021E3
:1006A000C6E900050846BDE8F087B3FA83F10029E2
:1006B0004AD1AB4202D3824200F2F980841A65EB40
:1006C000030301209846002EE2D0C6E90048DFE788
:1006D00002B9FFDEB2FA82F2002A40F09180A1EB6B
:1006E0000C054FEA1C471FFA8CFE0121B5FBF7F3FE
:1006F00007FB1350250C45EA00450EFB03F0A8420A
:1007000008D91CEB050503F1FF3802D2A84200F21C
:10071000CB8043462D1AA4B2B5FBF7F007FB10556A
:1007200044EA05440EFB00FEA64508D91CEB040470
:1007300000F1FF3502D2A64500F2BB802846A4EBAB
:100740000E0440EA03409EE7C1F120078B4022FAE5
:1007500007FC4CEA030C20FA07F405FA01F31C43EA
:10076000FD404FEA1C4900FA01F3B5FBF9F8200CF3
:100770001FFA8CFE09FB185540EA054508FB0EF0F0
:10078000A84202FA01F20BD91CEB050508F1FF3A69
:1007900080F08880A84240F28580A8F10208654474
:1007A0002D1AA4B2B5FBF9F009FB105544EA054532
:1007B00000FB0EFEAE4508D91CEB050500F1FF3429
:1007C0006CD2AE456AD90238654440EA0840A0FBC5
:1007D0000294A5EB0E05A542C846A64656D353D0B3
:1007E0005EB1B3EB080265EB0E0505FA07F722FAD6
:1007F00001F3CD401F43C6E900750021BDE8F08735
:10080000C2F1200320FA03F10CFA02FC25FA03F3EB
:1008100095400D434FEA1C471FFA8CFEB3FBF7F1DE
:1008200007FB11302B0C43EA004301FB0EF098420A
:1008300004FA02F408D91CEB030301F1FF382FD2AC
:1008400098422DD9023963441B1AADB2B3FBF7F0BD
:1008500007FB103345EA034500FB0EF3AB4208D912
:100860001CEB050500F1FF3816D2AB4214D9023853
:100870006544ED1A40EA014138E73146304607E762
:100880008646E5E61846FAE64B45A9D2B9EB0208DA
:1008900064EB0C0E0138A3E74046EAE7204694E7F4
:1008A0004146D1E7D0467BE7023B654432E7084644
:1008B00009E76444023842E703685A004CBF43F03A
:1008C000004323F000431844704700BF2DE9F8436C
:1008D00029B34F1E044615463E464FF0000808EB6C
:1008E000060101EBD171491004EBC1094846FFF73D
:1008F000E3FF0346C80008308F42204409D0AB42D2
:1009000009D8FFF7D9FF0138A8420AD201F101083E
:10091000E5E7AB4205D9884501D04E1EDFE74FF031
:1009200000094846BDE8F883012807D0022807D00F
:10093000044B00280CBF184600207047024870473F
:10094000024870470110000805100008091000084F
:1009500030B5234B83B004468D1E3BB301A9284616
:10096000AFF30080E8B101992A46FFF7AFFF0146D7
:10097000B8B1FFF7A1FF4B68A064012B2CD0002B6E
:1009800001F1040024DBFFF797FF0023C4E9130300
:100990000368002B11DBFFF78FFF2061002003B0FD
:1009A00030BD00230920236103B030BD0D4B0E493B
:1009B000C91AC91018460191D6E7C3F30360FFF7BF
:1009C000B3FF0028206114BF0020092003B030BD10
:1009D0000123C4E91303DBE7002323610520DEE7DD
:1009E00000000000385A0108005B01080368DA07BC
:1009F00010B5044606D49B0700F1480009D500F065
:100A00005BFC2368590709D51A070ED5DB0613D5F9
:100A100010BD00F049FC23685907F5D404F1D0005B
:100A200000F052FC23681A07F0D404F5A87000F017
:100A300053FC2368DB06EBD404F5E870BDE81040F6
:100A400000F08EBC092070470346006800B11844CE
:100A5000704700BF704700BF70B504460E46316C4A
:100A60002046FFF775FF054688B9326C626123693D
:100A700032462146012098470828F0D0072806D1A1
:100A80002846316CFFF7E6FF301D00F001FC07F04F
:100A9000CBFF00BF2DE9F0470D1DD0F80C80D0F83A
:100AA0001890074614460FCDADF5727D0DF10C0C74
:100AB000ACE80F000FCDACE80F000FCDACE80F0095
:100AC00095E80F0002AE4FF0000E8CE80F00C6F85C
:100AD00000E020E0336C7B614FF4F07231467AA87D
:100AE00000F056FE3B697AAA394650469847889BE3
:100AF00073642146CDE9006905463B463A4601202C
:100B0000C0470446E0B94FF4F0727AA9304600F0CD
:100B10003FFE082D1AD1316C3846FFF719FF093412
:100B20005FFA84FA05460028D4D0B36B73643A4662
:100B3000CDE900693B464AF010010120C04700B1F1
:100B4000092528460DF5727DBDE8F087072DF7D100
:100B50002046316CFFF77EFF03A800F099FB00BF31
:100B6000406C7047F0B5CB6B0B6401F1040C0E4682
:100B70000546BCE80F00F9B001AC0FC4BCE80F009B
:100B80000FC4BCE80F000FC49CE80F004FF0FF3704
:100B900084E80F00009706E02B696A4629469847CB
:100BA0000828044608D110992846FFF7D1FE0028EE
:100BB000F2D0092079B0F0BD6846FFF717FF062C88
:100BC000F7D131462846FFF747FF00BFC160D96B18
:100BD00082611964002219465CE700BF70B5C668DF
:100BE00043690B64AEB903690A4604460D460146E3
:100BF00002209847072805D008280FD1294620460B
:100C0000FFF72AFF3046296CFFF724FF281D00F06C
:100C10003FFB0122FFF73EFF07F006FF07F004FF4E
:100C2000C2681AB1CA6B0A64002233E79AE700BFB0
:100C3000704700BF836801460BB101201847704719
:100C4000012912D009D873B90F2A0CD800EB8202FF
:100C500018465368009A136070470339012994BFFE
:100C6000012002207047022070470846704700BFED
:100C700000B585B00A46002303A900911946FFF785
:100C8000DFFF039805B05DF804FB00BF012912D017
:100C900009D873B90F2A0CD800EB8200009A1268A9
:100CA0004260184670470339012994BF0120022091
:100CB0007047022070470846704700BF10B584B0E7
:100CC000002303AC039200940A461946FFF7DEFFA7
:100CD00004B010BD70B5D36B136402F1040C05466B
:100CE0000C46BCE80F00ADF50E7D0DF15C0EAEE8D4
:100CF0000F00BCE80F00AEE80F00BCE80F00AEE844
:100D00000F009CE80F004FF0FF368EE80F0016969C
:100D100010E0FFF7D3FF214616A8A847034616AAFE
:100D20006946082083B9049B9847052806460CD0DD
:100D3000092809D026996846FFF70AFE03466A4645
:100D40000C2116A8002BE4D0092616A8FFF74EFEAA
:100D500030460DF50E7D70BD2DE9F04FCC6C89B09D
:100D60001E4654F8043B06940D46174600F003084F
:100D7000002E79D01A0C1B0405938DF81D20022338
:100D8000D2B204EB82048DF81C302B6DB8F1020F47
:100D900008BFAC6B13F001030CD005A9384600F076
:100DA00079FB18B9082009B0BDE8F08F092009B017
:100DB000BDE8F08FD4F800A0BAF1000FEDD0019398
:100DC00000F008030293022E4AD0B4F800A0B4F851
:100DD00002900434AB6C29F0010B0F2138469B4480
:100DE000FFF746FF834539D82AF001039B4483452A
:100DF00094BF002001204FEA490303F002030AF0E8
:100E0000010A43EA0A03012B49D0022B32D0002BFE
:100E1000CCD1B8F1000F02D0002840F0CD800434CE
:100E2000D4F800A0BAF1000FCDD105A9384600F0E2
:100E300031FB0028BAD1019B002BB3D00F213846DB
:100E4000FFF716FF0E2102463846FFF737FF3846F8
:100E50006A4A0F21FFF732FF0720A8E70020CAE700
:100E6000D4F804900834B5E71B0205930323ADF8CA
:100E70001C308AE7236823F0004BB8F1000F45D1FE
:100E800028B1029A002A5CD0BBF1000F74D0002B6D
:100E900000DA04340BF1010B04EB8B04C0E7B8F16A
:100EA000000F19D1B0B163682268991C4FEAD27261
:100EB0003FF47CAF05F158010133049100F09080BC
:100EC000201DFFF7C1FD04AB01462846AFF30080AB
:100ED00000285BD10834A3E70D213846D5F82090CF
:100EE000FFF7C6FE8145F5D1AB6A9C42F2D12046A0
:100EF000FFF7E2FC0F2102463846FFF7DFFE3846D7
:100F00002A460021FFF7DAFE072050E70D21384678
:100F1000D5F82090FFF7ACFE814501D02368B6E7F5
:100F2000AB6A9C42FAD104230022C5E90B23E318E3
:100F3000C5F828B06B632368002B59DB01230193AC
:100F4000A8E705F15803CDF80C8004F1040AB04677
:100F500091461E460EE050460496FFF775FD0022AE
:100F6000014604AB284609F101090AF1040AAFF36E
:100F70000080E0B9D945EED10D213846FFF778FE63
:100F8000049BAC62C5E90803062010E781460D21E9
:100F90003846FFF76DFEB9F1020F286225D12B46C6
:100FA000049A43F82C2F6B62AC620620FFE646469B
:100FB0002368DDF80C806AE72046FFF77DFC0434E7
:100FC0000246AC6328461446AFF3008000283FF485
:100FD000EDAE384622460F21FFF770FE0720E6E609
:100FE0000D213846FFF744FE2862049B6B62DBE765
:100FF0000BF1010004EB80007AE700BF0000000065
:101000000023A9E60123A7E60223A5E62DE9F04384
:101010000646C3B015461C46042900F2BF80DFE82F
:1010200001F09E57BD2D0300002C40F0B780102A20
:1010300000F2B4800368D80600F1F98020AF38468A
:1010400000F098F9B46B394600234FF0010C0CFA0C
:1010500003F22A42204603F1010303D050F8042B87
:101060000A600446042B01F10401F0D13846B46350
:1010700000F076F9002043B0BDE8F083032C40F087
:101080008D8094B204EB1243102B4FEA124500F20C
:10109000858003681F0700F1D28020AF384600F03A
:1010A0003DF9B26B07EBC50154B10B46D01A01EB09
:1010B000C401E4001D5843F8045B8B42FAD122447A
:1010C0003846B26300F008F9002043B0BDE8F08371
:1010D000012C4FEA124895B25CD0052C5ED108EB8A
:1010E0000509B9F1200F59D8B8F10F0F79D9A946E0
:1010F000002D40F08A80B36B6DB320AF4FF0000934
:1011000007EBC807043F03EBC50553F8041B47F87A
:10111000041FAB42F9D1B9F1000F0FD06F46414621
:10112000102938BF102107EBC101843903EBC90531
:1011300053F8040B41F8040FAB42F9D1012C00F035
:101140008680B8F10F0FB56347D9B9F1000F02D00F
:10115000684600F0B9F8002043B0BDE8F083ECB970
:10116000806B23461FFA82FC0124371D04FA03F228
:1011700012EA0C0F014604D051F8042B47F8232043
:1011800008460133102BF1D115F40055E3D1B063BB
:10119000284604E008EB0503102B03D9022043B0D6
:1011A000BDE8F083B8F10F0FF8D83368DA0706D539
:1011B000304623F0030340F8483B00F079F820AFB5
:1011C000384600F075F8B36B002D97D11D460435F5
:1011D000B563384600F068F8BDE720A800F06CF869
:1011E000B3E7B9F1100F40D9A9F110093368D90755
:1011F00008D523F00103304643F0020340F8483B92
:1012000000F05EF8B9F1000F32D033685A0720D4ED
:10121000B8F10F0F25D96F463846C8F1100500F018
:1012200057F8002DB36B7FF77AAF20AF68E723F054
:101230001003336006F5E87000F09CF8FEE623F03A
:101240000803036000F5A87000F068F825E720AFF8
:10125000BDE7304623F0040340F8D03B00F038F8F7
:10126000D6E720A800F02CF8D5E74FF00009BDE73D
:10127000B8F10F0F3FF63FAF20AF384600F020F82F
:10128000B36B002D7FF43AAF384600F015F862E7F3
:1012900000F1340191E838009C46A6464CF8045D04
:1012A00090E8FF0FE54600BD90EC210B704700BFB2
:1012B00080EC210B704700BF90EC200B704700BF03
:1012C00080EC200B704700BFD0EC200B704700BFB4
:1012D000C0EC200B704700BFF0EC0201F0EC0211F3
:1012E000F0EC0221F0EC0231F0EC0241F0EC0251A2
:1012F000F0EC0261F0EC0271F0EC0281F0EC029192
:10130000F0EC02A1F0EC02B1F0EC02C1F0EC02D181
:10131000F0EC02E1F0EC02F1704700BFE0EC0201FA
:10132000E0EC0211E0EC0221E0EC0231E0EC0241E1
:10133000E0EC0251E0EC0261E0EC0271E0EC0281D1
:10134000E0EC0291E0EC02A1E0EC02B1E0EC02C1C1
:10135000E0EC02D1E0EC02E1E0EC02F1704700BF0A
:10136000B0FC0181B0FC0191B0FC01A1B0FC01B165
:10137000704700BFA0FC0181A0FC0191A0FC01A16D
:10138000A0FC01B1704700BFEC4600B52DE900504C
:101390002DE9FF1F4FF000032DE90C0001A9FFF715
:1013A000E1FBDDF840E012B0704700BFEC4600B54D
:1013B0002DE900502DE9FF1F4FF000032DE90C002F
:1013C00001A9FFF70BFCDDF840E012B0704700BF49
:1013D000EC4600B52DE900502DE9FF1F4FF000034A
:1013E0002DE90C0001A9FFF71BFCDDF840E012B06D
:1013F000704700BFEC4600B52DE900502DE9FF1FF6
:101400004FF000032DE90C0001ABFFF7DFFBDDF827
:1014100040E012B0704700BFEC4600B52DE9005027
:101420002DE9FF1F4FF000032DE90C0001AAFFF783
:1014300051FCDDF840E012B0704700BF027A03466D
:101440007AB9427AA2B14168013A10B4427208688E
:1014500003220C1D1A7202025C60000E10BC1A609E
:1014600070470068013A1A7202021A60000E704753
:10147000B020704700B585B0002303AA009219463A
:101480000C22FFF7DDFB039805B05DF804FB00BFFD
:10149000F0E700BF2DE9F043054685B00E464FF05A
:1014A00000083046FFF7CAFFB028044600F0BA80B3
:1014B000070620D500F0F003802B4DD0902B36D0BE
:1014C000A02B60D0B02B74D0C02B00F08B8000F02C
:1014D000F803D02B0BD100F007020132052342F4B0
:1014E000002201212846FFF791FD0028D9D00920CC
:1014F00005B0BDE8F0838300DBB21F1D0DF10C09C0
:1015000000231946CDF800900D222846FFF798FBDE
:10151000039BCDF8009060064CBFDF1BFF18002333
:101520000D22194628460397FFF7B0FBB9E700F0F4
:101530000D030D2BDBD003AF002300F00F02194683
:1015400000972846FFF77CFB002300970D221946E1
:101550002846FFF79BFBA4E73046FFF76FFF240206
:101560002043B0F5004FC2D004010023A2B21946B7
:101570002846FFF74BFD0028B9D114F4004F18BFDF
:101580004FF001088DE7C24302F007034FF47F627A
:101590001A41010702F47F624FF0000348BF42F492
:1015A000804219462846FFF731FD00283FF479AF05
:1015B0009DE7B1283BD0B22800F09380B32841D0FA
:1015C00000F0FC03B42B92D000F00702013201239B
:1015D00042F4002219462846FFF718FD00283FF480
:1015E00060AF84E7C6284AD0C72854D000F0F8037B
:1015F000C02B63D0C82868D0C9287FF478AF3046A4
:10160000FFF71CFF020300F00F0002F4702201300C
:101610000243012105232846FFF7F8FC00283FF488
:1016200040AF64E7B8F1000F18D0002060E7304603
:10163000FFF704FF024600283FF459AF10F0F00313
:10164000C8D054E73046FFF7F9FE020300F00F035D
:10165000013302F470221A430123BBE703AC434673
:101660000E22414600942846FFF7EAFA00944346CA
:101670000F2241462846FFF709FB404638E730462F
:10168000FFF7DCFE020300F00F03013302F47022C7
:101690001A4303239EE73046FFF7D0FE0246002898
:1016A0003FF425AF10F0F0037FF421AF042128466A
:1016B000FFF7ACFC00283FF4F4AE18E700F00F028F
:1016C0000132032342F4202284E73046FFF7B6FEBE
:1016D00000F0F00200F00F031032013343EA02324F
:1016E00097E700230DF10C090D221946CDF8009063
:1016F0002846FFF7A5FA3046FFF7A0FE02064FF096
:1017000002040CD5039B00F07F00A0401844039016
:101710003046FFF793FE030604F10704F2D4039B5F
:10172000CDF8009000F07F02A24003F501731A4447
:101730000023039219460D222846FFF7A7FAB0E6C8
:1017400010B5C26C536884B04FF0030C08321C0211
:1017500008461B0E01A9019402928DF80CC08DF869
:101760000D30FFF797FE04B010BD00BF08B5FFF7BE
:101770008FFE806C08BD00BF08B5FFF789FEC06C06
:10178000C379023300EB830008BD00BF704700BF80
:10179000844641EA000313F003036DD1403A41D37C
:1017A00051F8043B40F8043B51F8043B40F8043B3B
:1017B00051F8043B40F8043B51F8043B40F8043B2B
:1017C00051F8043B40F8043B51F8043B40F8043B1B
:1017D00051F8043B40F8043B51F8043B40F8043B0B
:1017E00051F8043B40F8043B51F8043B40F8043BFB
:1017F00051F8043B40F8043B51F8043B40F8043BEB
:1018000051F8043B40F8043B51F8043B40F8043BDA
:1018100051F8043B40F8043B51F8043B40F8043BCA
:10182000403ABDD2303211D351F8043B40F8043B6A
:1018300051F8043B40F8043B51F8043B40F8043BAA
:1018400051F8043B40F8043B103AEDD20C3205D37A
:1018500051F8043B40F8043B043AF9D2043208D072
:10186000D2071CBF11F8013B00F8013B01D30B88E4
:1018700003806046704700BF082A13D38B078DD0C2
:1018800010F003038AD0C3F10403D21ADB071CBF94
:1018900011F8013B00F8013B80D331F8023B20F8FE
:1018A000023B7BE7043AD9D3013A11F8013B00F837
:1018B000013BF9D20B7803704B7843708B788370BF
:1018C00060467047000000000000000000000000BB
:1018D0000000000000000000000000000000000008
:1018E00000000000000000000000000000000000F8
:1018F00000000000000000000000000000000000E8
:1019000090F800F06DE9024520F007016FF0000C3F
:1019100010F0070491F820F040F049804FF00004E7
:101920006FF00700D1E9002391F840F000F10800C2
:1019300082FA4CF2A4FA8CF283FA4CF3A2FA8CF3FA
:101940004BBBD1E9022382FA4CF200F10800A4FA61
:101950008CF283FA4CF3A2FA8CF3E3B9D1E90423B5
:1019600082FA4CF200F10800A4FA8CF283FA4CF3EC
:10197000A2FA8CF37BB9D1E9062301F1200182FAA6
:101980004CF200F10800A4FA8CF283FA4CF3A2FAAC
:101990008CF3002BC6D0002A04BF04301A4612BABA
:1019A000B2FA82F2FDE8024500EBD2007047D1E9BD
:1019B000002304F00305C4F100004FEAC50514F04C
:1019C000040F91F840F00CFA05F562EA05021CBF1D
:1019D00063EA050362464FF00004A9E70000000037
:1019E00001F0FF01102A2BDB10F0070F08D010F8D0
:1019F000013B013A8B422DD010F0070F42B3F6D1D4
:101A0000F0B441EA012141EA014122F007047FF0EC
:101A100000070023F0E80256083C85EA010586EA43
:101A2000010685FA47F5A3FA87F586FA47F6A5FA7F
:101A300087F68EB9EED1F0BC01F0FF0102F007028B
:101A400032B110F8013B013A83EA010313B1F8D136
:101A50000020704701387047002D06BF3546033817
:101A6000073815F0010F07D1013015F4807F02BF50
:101A7000013015F4C03F0130F0BC0138704700BFA1
:101A800070B54FF0FF0C4CF4E06C1CEA11541DBF14
:101A90001CEA135594EA0C0F95EA0C0F00F0DEF8DF
:101AA0002C4481EA030621EA4C5123EA4C5350EAC4
:101AB000013518BF52EA033541F4801143F4801315
:101AC00038D0A0FB02CE4FF00005E1FB02E506F0A6
:101AD0000042E0FB03E54FF00006E1FB03569CF0FB
:101AE000000F18BF4EF0010EA4F1FF04B6F5007F01
:101AF00064F5407404D25FEA4E0E6D4146EB060673
:101B000042EAC62141EA55514FEAC52040EA5E50FB
:101B10004FEACE2EB4F1FD0C88BFBCF5E06F1ED8A5
:101B2000BEF1004F08BF5FEA500E50F1000041EBDC
:101B3000045170BD06F0004646EA010140EA020089
:101B400081EA0301B4EB5C04C2BFD4EB0C0541EAAB
:101B5000045170BD41F480114FF0000E013C00F3C0
:101B6000AB8014F1360FDEBF002001F0004170BDE4
:101B7000C4F10004203C35DA0C341BDC04F11404FD
:101B8000C4F1200500FA05F320FA04F001FA05F289
:101B900040EA020001F0004221F0004110EBD37056
:101BA00021FA04F642EB06015EEA430E08BF20EA82
:101BB000D37070BDC4F10C04C4F1200500FA04F325
:101BC00020FA05F001FA04F240EA020001F00041B7
:101BD00010EBD37041F100015EEA430E08BF20EA2A
:101BE000D37070BDC4F1200500FA05F24EEA020E72
:101BF00020FA04F301FA05F243EA020321FA04F0A1
:101C000001F0004121FA04F220EA020000EBD37057
:101C10005EEA430E08BF20EAD37070BD94F0000F57
:101C20000FD101F00046400041EB010111F4801F8B
:101C300008BF013CF7D041EA060195F0000F18BF3C
:101C4000704703F00046520043EB030313F4801F78
:101C500008BF013DF7D043EA0603704794EA0C0F32
:101C60000CEA135518BF95EA0C0F0CD050EA410648
:101C700018BF52EA4306D1D181EA030101F00041C5
:101C80004FF0000070BD50EA410606BF10461946ED
:101C900052EA430619D094EA0C0F02D150EA0136F9
:101CA00013D195EA0C0F05D152EA03361CBF10463A
:101CB00019460AD181EA030101F0004141F0FE41D9
:101CC00041F470014FF0000070BD41F0FE4141F45D
:101CD000780170BD70B54FF0FF0C4CF4E06C1CEA5D
:101CE00011541DBF1CEA135594EA0C0F95EA0C0F12
:101CF00000F0A7F8A4EB050481EA030E52EA0335CD
:101D00004FEA013100F088804FEA03334FF08055ED
:101D100045EA131343EA12634FEA022245EA11151A
:101D200045EA10654FEA00260EF000419D4208BFCB
:101D3000964244F1FD0404F5407402D25B084FEA78
:101D40003202B61A65EB03055B084FEA32024FF424
:101D500080104FF4002CB6EB020E75EB030E22BF81
:101D6000B61A754640EA0C005B084FEA3202B6EB41
:101D7000020E75EB030E22BFB61A754640EA5C00F0
:101D80005B084FEA3202B6EB020E75EB030E22BF80
:101D9000B61A754640EA9C005B084FEA3202B6EB81
:101DA000020E75EB030E22BFB61A754640EADC0040
:101DB00055EA060E18D04FEA051545EA16754FEAA2
:101DC00006164FEAC30343EA52734FEAC2025FEAC0
:101DD0001C1CC0D111F4801F0BD141EA00014FF04F
:101DE00000004FF0004CB6E711F4801F04BF014320
:101DF0000020B4F1FD0C88BFBCF5E06F3FF6AFAE3C
:101E0000B5EB030C04BFB6EB020C5FEA500C50F1CB
:101E1000000041EB045170BD0EF0004E4EEA11314E
:101E200014EB5C04C2BFD4EB0C0541EA045170BD55
:101E300041F480114FF0000E013C90E645EA060E99
:101E40008DE60CEA135594EA0C0F08BF95EA0C0FC7
:101E50003FF43BAF94EA0C0F0AD150EA01347FF40F
:101E600034AF95EA0C0F7FF425AF104619462CE7E6
:101E700095EA0C0F06D152EA03353FF4FDAE104649
:101E8000194622E750EA410618BF52EA43067FF49A
:101E9000C5AE50EA41047FF40DAF52EA43057FF42A
:101EA000EBAE12E74FF0FF3C06E000BF4FF0010C35
:101EB00002E000BF4FF0010C4DF804CD4FEA410C99
:101EC0007FEA6C5C4FEA430C18BF7FEA6C5C1BD066
:101ED00001B050EA410C0CBF52EA430C91EA030FE7
:101EE00002BF90EA020F0020704710F1000F91EA44
:101EF000030F58BF994208BF90422CBFD8176FEA12
:101F0000E37040F0010070474FEA410C7FEA6C5CDF
:101F100002D150EA013C07D14FEA430C7FEA6C5CE6
:101F2000D6D152EA033CD3D05DF8040B704700BF12
:101F30008446104662468C461946634600E000BF60
:101F400001B5FFF7B7FF002848BF10F1000F01BD32
:101F50004DF808EDFFF7F4FF0CBF012000205DF8FD
:101F600008FB00BF4DF808EDFFF7EAFF34BF012082
:101F700000205DF808FB00BF4DF808EDFFF7E0FF1B
:101F800094BF012000205DF808FB00BF4DF808ED6C
:101F9000FFF7CEFF94BF012000205DF808FB00BFD3
:101FA0004DF808EDFFF7C4FF34BF012000205DF8B5
:101FB00008FB00BF4FEA410C7FEA6C5C02D150EA9B
:101FC000013C0AD14FEA430C7FEA6C5C02D152EA31
:101FD000033C02D14FF0000070474FF00100704702
:101FE0004FEA410212F5001215D211D56FF4787341
:101FF000B3EB625212D94FEAC12343F0004343EAE4
:10200000505311F0004F23FA02F018BF40427047BE
:102010004FF00000704750EA013005D111F0004048
:1020200008BF6FF0004070474FF00000704700BFDE
:10203000FEE7FEE7FEE7FEE7FEE770477047704702
:1020400008B500F0A1F808BD0120704708B506F0FA
:10205000F3FC162303604FF0FF3008BD08B54FF0C6
:10206000FF31FFF7F3FFFEE710B503460C4A0D49B9
:102070000D48006840B10C4800680344521A93426E
:1020800006D8094A136010BD0748084C0460F2E7FF
:1020900006F0D2FC0C2303604FF0FF30F3E700BFE3
:1020A00000000320000400002C0B0020D00E0020B4
:1020B00070470000DFF834D00D480E490E4A002367
:1020C00002E0D458C4500433C4188C42F9D30B4AEC
:1020D0000B4C002301E013600432A242FBD3FFF754
:1020E000E7FF06F0AFFC06F06DFC70470000032030
:1020F00000000020100B00200C5B0108100B0020DA
:10210000D00E0020FEE7000010B504460E4B1878F4
:102110004FF47A73B3FBF0F30C4A1068B0FBF3F0A2
:1021200000F09CF868B90F2C01D901200AE00022C8
:1021300021464FF0FF3000F04BF8054B1C600020AB
:1021400000E0012010BD00BF0400002000000020BE
:102150000800002008B50B4B1A6842F400721A60A0
:102160001A6842F480621A601A6842F480721A6037
:10217000032000F01BF80F20FFF7C6FF06F0EEFB70
:10218000002008BD003C0240034A1168034B1B7845
:102190000B441360704700BF300B00200400002088
:1021A000014B1868704700BF300B0020074AD36806
:1021B00023F4E0631B041B0C000200F4E060034303
:1021C00043F0BF6343F40033D360704700ED00E099
:1021D00000B5194BDB68C3F30223C3F1070CBCF154
:1021E000040F28BF4FF0040C03F1040EBEF1060FDC
:1021F00018D9033B4FF0FF3E0EFA0CFC21EA0C010C
:1022000099400EFA03F322EA0303194300280BDB7B
:102210000901C9B200F1604000F5614080F8001387
:102220005DF804FB0023E5E700F00F000901C9B2E7
:10223000024B1954F4E700BF00ED00E014ED00E09C
:10224000002807DB00F01F02400901239340024AE7
:1022500042F82030704700BF00E100E00138B0F1E3
:10226000807F0BD24FF0E0235861054AF02182F8BD
:1022700023100020986107221A61704701207047DF
:1022800000ED00E0042806D04FF0E022136923F0AF
:102290000403136170474FF0E022136943F0040315
:1022A0001361704770B50446866DFFF779FF94F8A7
:1022B0003530DBB2022B06D080236365002384F81F
:1022C0003430012070BD05462268136823F01603E0
:1022D00013602268536923F080035361236CE3B1D8
:1022E0002268136823F0080313602268136823F040
:1022F0000103136023681B6813F0010F11D0FFF76F
:102300004FFF431B052BF5D920236365032084F879
:102310003500002384F83430D4E7A36C002BDFD1E0
:10232000E3E7E26D3F239340B360012384F8353047
:10233000002084F83400C5E790F83530DBB2022B7A
:1023400003D08023436501207047052380F8353092
:102350000268136823F00103136000207047000037
:1023600000230F2B00F2F18070B582B061E0856828
:102370005E000324B44025EA0405CC68B4402C4335
:102380008460456825EA02054C68C4F300129A404F
:102390002A4342605BE0DC08083450F8246003F014
:1023A000070295000F22AA4026EA020E0A69AA40F7
:1023B00042EA0E0240F824205DE0092200E00022FB
:1023C00002FA0EF22A430234604D45F82420604A96
:1023D00094686FEA0C0224EA0C054E6816F4801F1C
:1023E00001D04CEA04055A4CA560E46802EA0405F1
:1023F0004E6816F4001F01D04CEA0405544CE56009
:10240000646802EA04054E6816F4003F01D04CEA05
:1024100004054F4C6560246822404D6815F4803FE8
:1024200001D04CEA04024A4C226001330F2B00F227
:102430008A8001229A400C6804EA020C32EA040401
:10244000F3D14C6804F00304013C012C8FD94A6895
:1024500002F00302032A09D0C4685D000322AA40E7
:1024600024EA02048A68AA402243C2604A6802F051
:102470000302022A8FD004684FEA430E032202FAB5
:102480000EF224EA02044A6802F0030202FA0EF293
:10249000224302604A6812F4403FC6D000220192F3
:1024A0002C4A546C44F480445464526C02F48042CC
:1024B0000192019A9C08A51C244A52F8255003F069
:1024C00003024FEA820E0F2202FA0EF225EA0205FB
:1024D000214A90423FF473AF02F58062904222D0CD
:1024E00002F58062904220D002F5806290421ED0B8
:1024F00002F5806290421CD002F5806290421AD0B0
:1025000002F58062904218D002F58062904216D0A7
:1025100002F58062904214D002F5806290423FF44E
:102520004CAF0A224CE701224AE7022248E7032285
:1025300046E7042244E7052242E7062240E7072255
:102540003EE708223CE702B070BD7047003801400A
:10255000003C01400038024000000240036919427B
:1025600001D001207047002070470AB18161704797
:10257000090481617047000008B5054B5B6903429F
:1025800000D108BD024B586101F092FDF9E700BF90
:10259000003C014010B582B000230193194B1A6C26
:1025A00042F080521A641B6C03F080530193019B2C
:1025B000154B01221A64FFF7F3FD0446134B5B68C9
:1025C00013F4803F08D1FFF7EBFD001BB0F57A7FD5
:1025D000F4D9032002B010BD0B4B01225A64FFF75F
:1025E000DFFD0446094B5B6813F4003F07D1FFF79A
:1025F000D7FD001BB0F57A7FF4D90320EAE700206D
:10260000E8E700BF0038024000000E4200700040C2
:10261000002800F0E08170B582B00446036813F032
:10262000010F3BD09F4B9B6803F00C03042B2CD075
:102630009C4B9B6803F00C03082B21D06368B3F517
:10264000803F4FD0B3F5A02F52D0964B1A6822F49A
:1026500080321A601A6822F480221A606368002BA4
:1026600050D0FFF79DFD05468E4B1B6813F4003FCD
:1026700014D1FFF795FD401B6428F5D90320B1E183
:10268000884B5B6813F4800FD8D0864B1B6813F41B
:10269000003F03D06368002B00F09F81236813F094
:1026A000020F54D07F4B9B6813F00C0F3ED07D4B34
:1026B0009B6803F00C03082B33D0E368002B68D031
:1026C000794B01221A60FFF76BFD0546754B1B68BD
:1026D00013F0020F54D1FFF763FD401B0228F5D918
:1026E00003207FE16F4A136843F480331360B5E73A
:1026F0006C4B1A6842F480221A601A6842F48032E5
:102700001A60ABE7FFF74CFD0546664B1B6813F4F8
:10271000003FC3D0FFF744FD401B6428F5D90320D8
:1027200060E1604B5B6813F4800FC6D15D4B1B68A2
:1027300013F0020F03D0E368012B40F05081594A97
:10274000136823F0F803216943EAC1031360236887
:1027500013F0080F42D063696BB3534B0122C3F8E7
:10276000802EFFF71DFD05464E4B5B6F13F0020FE9
:1027700034D1FFF715FD401B0228F5D9032031E1C4
:10278000484A136823F0F803216943EAC103136040
:10279000DDE7454B00221A60FFF702FD0546414B7D
:1027A0001B6813F0020FD2D0FFF7FAFC401B02287F
:1027B000F5D9032016E13C4B0022C3F8802EFFF729
:1027C000EFFC0546374B5B6F13F0020F06D0FFF7A7
:1027D000E7FC401B0228F5D9032003E1236813F02E
:1027E000040F77D02F4B1B6C13F0805F33D1002385
:1027F00001932C4B1A6C42F080521A641B6C03F04C
:1028000080530193019B0125284B1B6813F4807FA3
:1028100023D0A368012B34D0052B38D0214B1A6F5D
:1028200022F001021A671A6F22F004021A67A368E5
:10283000002B3DD0FFF7B4FC06461A4B1B6F13F07C
:10284000020F46D1FFF7ACFC801B41F2883398425F
:10285000F3D90320C6E00025D6E7144A136843F4F1
:1028600080731360FFF79CFC0646104B1B6813F443
:10287000807FCED1FFF794FC801B0228F5D903207E
:10288000B0E0084A136F43F001031367CFE7054B2D
:102890001A6F42F004021A671A6F42F001021A67B7
:1028A000C5E700BF0038024000004742007000400A
:1028B000FFF776FC0646524B1B6F13F0020F08D051
:1028C000FFF76EFC801B41F288339842F3D9032056
:1028D00088E0EDB9A369002B00F08380484A926834
:1028E00002F00C02082A51D0022B17D0454B0022CF
:1028F0001A66FFF755FC0446414B1B6813F0007F36
:1029000042D0FFF74DFC001B0228F5D9032069E0F7
:102910003B4A136C23F080531364DBE7394B0022EE
:102920001A66FFF73DFC0546354B1B6813F0007F28
:1029300006D0FFF735FC401B0228F5D9032051E0F3
:10294000E369226A1343626A43EA8213A26A520865
:10295000013A43EA0243E26A43EA0263284A5360C7
:10296000284B01221A66FFF71BFC0446244B1B6808
:1029700013F0007F06D1FFF713FC001B0228F5D9E6
:1029800003202FE000202DE000202BE0012B2BD096
:102990001B4B5B6803F48001E269914226D103F08E
:1029A0003F02216A8A4223D1616A47F6C0721A4007
:1029B000B2EB811F1ED103F44031A26A5208013AE2
:1029C000B1EB024F18D103F07063E26AB3EB026F10
:1029D00014D1002006E001207047012002E0012010
:1029E00000E0002002B070BD0120FBE70120F9E704
:1029F0000120F7E70120F5E70120F3E70120F1E7E7
:102A0000003802400000474208B5254B9B6803F0A0
:102A10000C03042B3FD0082B3FD1214B5A6802F006
:102A20003F025B6813F4800F12D01D4B5968C1F34D
:102A300088111C480023A1FB0001FDF7BDFD184BC8
:102A40005B68C3F3014301335B00B0FBF3F025E0A7
:102A5000134B5968C1F3881C4FEA4C11B1EB0C00C1
:102A60006EEB0E0E4FEA8E1343EA90638101091A52
:102A700063EB0E03DB0043EA5173C90011EB0C0C4E
:102A800043F10003990200234FEA8C2041EA9C5154
:102A9000FDF792FDD3E7034800E0034808BD00BFFF
:102AA0000038024040787D010024F400002800F046
:102AB0009B8070B50D4604464F4B1B6803F00F0317
:102AC0008B4208D2CBB24C4A1370136803F00F0349
:102AD0008B4240F08B80236813F0020F17D013F065
:102AE000040F04D0454A936843F4E053936023688D
:102AF00013F0080F04D0414A936843F46043936095
:102B00003E4A936823F0F003A1680B439360236867
:102B100013F0010F32D06368012B21D09A1E012AD5
:102B200025D9364A126812F0020F61D033498A68FB
:102B300022F0030213438B60FFF732FB06462F4B54
:102B40009B6803F00C036268B3EB820F16D0FFF7AB
:102B500027FB801B41F288339842F0D9032042E0E2
:102B6000264A126812F4003FE0D101203BE0234ADC
:102B7000126812F0007FD9D1012034E01E4B1B688F
:102B800003F00F03AB4207D9EAB21B4B1A701B6864
:102B900003F00F03AB422DD1236813F0040F06D0CE
:102BA000164A936823F4E053E1680B43936023686B
:102BB00013F0080F07D0114A936823F4604321698A
:102BC00043EAC1039360FFF71FFF0C4B9B68C3F3FD
:102BD00003130B4AD35CD8400A4B18600A4B1868A1
:102BE000FFF792FA002070BD012070470120FAE73C
:102BF0000120F8E70120F6E7003C024000380240DF
:102C0000FC0701080000002008000020014B1868A4
:102C1000704700BF0000002008B5FFF7F7FF044B26
:102C20009B68C3F38223034AD35CD84008BD00BF2E
:102C3000003802400C08010808B5FFF7E7FF044B15
:102C40009B68C3F34233034AD35CD84008BD00BF3E
:102C5000003802400C0801087047000010B5044617
:102C600003689A6812F4805F03D0DB6813F4807FF6
:102C70000FD123689A6812F4005F03D0DB6813F465
:102C8000007F0FD10C4B4FF400325A610123637760
:102C900010BD05F09DFC2268D368DBB263F4C073FD
:102CA000D360E6E7204600F023FB2268D368DBB25E
:102CB00063F42073D360E5E7003C014038B5044677
:102CC0000268D36823F0A003D360FFF769FA0546D2
:102CD0002368DB6813F0200F07D1FFF761FA401B70
:102CE000B0F57A7FF4D9032000E0002038BD70B53C
:102CF0000368DA6812F0400F02D00025284670BD44
:102D00000446DA6842F08002DA60FFF749FA0646C4
:102D100000252368DB6813F0400FEFD1002DEDD1C3
:102D2000FFF73EFA831BB3F57A7FF2D9042363776A
:102D30000125EEE70268D36823F08003D3600368BF
:102D40009B6813F0200F01D00020704710B5044697
:102D5000FFF7B4FF10B104236377012010BD0028F2
:102D600041D010B50446437FE3B102236377236863
:102D7000CA225A62236853225A622046FFF7B7FFDD
:102D8000A0B158B92268136C23F48023136422681D
:102D9000136CA1690B431364012363772368FF223B
:102DA0005A6210BD0377FFF757FFDEE7226893688A
:102DB00023F4E00323F04003936021688A6863688A
:102DC000206903436069034313438B602368E2680F
:102DD0001A6122681369A16843EA0143136120461E
:102DE000FFF7A8FFCDE701207047002303E0013380
:102DF000DBB20A38C0B20928F9D81B01DBB218438C
:102E00007047037F012B59D070B504460E4601234D
:102E10000377022343774ABB03689B6813F0400F94
:102E200001D10023CB703078FFF7DFFF0504707805
:102E3000FFF7DBFF45EA0025B078FFF7D6FF054333
:102E4000F07845EA80552368CA225A6223685322E3
:102E50005A622046FFF74BFFD0B108B901236377D0
:102E60002368FF225A620023237770BD03689B68A2
:102E700013F0400F01D10023CB70337875782D0209
:102E800045EA0345B0780543F07845EA8055DAE72E
:102E9000236805F07F3525F0FE451D6022689368A4
:102EA00023F48023936021688B68F26830690243C1
:102EB00013438B602046FFF73DFFCEE702207047AB
:102EC000037F012B48D070B504460E4601230377DB
:102ED000022343773AB94B7813F0100F03D003F075
:102EE000EF030A334B7012BBF078FFF77EFF050447
:102EF0007078FFF77AFF45EA0025B078FFF775FF95
:102F00000543307845EA40352368CA225A6223686F
:102F100053225A622046FFF7EAFE98B108B901230E
:102F200063772368FF225A620023237770BDF3780A
:102F300075782D0245EA0345B0780543307845EAB7
:102F40004035E1E7236825F07F4525F0C0055D6049
:102F50002046FFF7EFFEE1E702207047F0B583B0AF
:102F60000D46684B1B686849A1FB0313DB0A4FF44D
:102F70007A7101FB03F30193037F012B00F0C08002
:102F800004460123037702234377002A6CD10368A8
:102F90009B6813F0400F01D10023EB70EF69287894
:102FA000FFF723FF06046878FFF71FFF46EA0026B5
:102FB000A878FFF71AFF0643E87846EA805695F8A6
:102FC0002000FFF712FF46EA00663E436B691E438E
:102FD0006868AB6918432368CA225A62236853227F
:102FE0005A626B6AB3F5807F58D02268936823F4E5
:102FF000007393602268D368DBB263F42073D360FC
:10300000404B1B68404AA2FB0323DB0A4FF47A7251
:1030100002FB03F30193019B5A1E0192002B67D020
:103020002368DA6812F0020FF5D01E6223689864F4
:103030002268936843F4007393602268936843F4B2
:1030400000539360314B1A6842F400321A609A6858
:1030500042F400329A602368FF225A6201236377A8
:103060000020207703B0F0BD03689B6813F0400F89
:1030700001D10023EB70EA6929786B781B0243EADF
:103080000143A9780B43E97843EA815395F820106E
:1030900043EA016313436E691E4399E7226893680C
:1030A00023F4807393602268D368DBB263F4C07347
:1030B000D360019B5A1E019293B12368D96811F025
:1030C000010FF6D0DE61236858642268936843F4E8
:1030D000807393602268936843F480539360B1E7F0
:1030E0002368FF225A620320607700232377B9E721
:1030F0002368FF225A620320607700232377B1E719
:103100000220AFE700000020D34D6210003C0140D8
:10311000030903EB830300F00F0000EB4300C0B290
:10312000704770B503689B6A4B6003681B69C3F303
:103130000E038B6003681B68C3F305400870C3F37C
:1031400006264E7003F07F058D70C3F38053CB705D
:103150005AB90C46FFF7DCFF20703046FFF7D8FF66
:1031600060702846FFF7D4FFA070002070BD70B5D6
:1031700003685B68C3F30740C870C3F304264E704E
:1031800003F03F058D70C3F342330B705AB90C4600
:10319000FFF7BEFFE0703046FFF7BAFF60702846C9
:1031A000FFF7B6FFA070002070BD000070B483B0C0
:1031B0003A4B1C683A4BA3FB0434E40A4FF47A738D
:1031C00003FB04F40194037F012B65D001230377F3
:1031D000022343770368CA255D62036853255D6255
:1031E0000668B36813F4806F08D0019B5D1E0195DB
:1031F000002B3ED0F36813F0040FF6D1B36823F42C
:103200008063B3600568EB68DBB263F49063EB60E6
:103210000194019B5C1E0194002B32D00368DC6892
:1032200014F0040FF5D09C6824F007049C60046837
:10323000A3681A43A260036859611A4B1A6842F4E2
:1032400080021A609A6842F480029A600268936869
:1032500043F4804393600268936843F4806393600F
:103260000368FF225A62012343770023037718463D
:103270000FE0FF237362032343770022027718468F
:1032800007E00368FF225A62032343770022027794
:10329000184603B070BC70470220FAE70000002017
:1032A000D34D6210003C014010B504460368DB6852
:1032B00013F4806F06D1084B4FF480025A6101234A
:1032C000637710BD05F08EF92268D368DBB263F432
:1032D0009063D360EFE700BF003C014003685033C8
:1032E00043F8212070470368503353F8210070479A
:1032F000704740B370B50E461546044690F8493005
:10330000E3B1214651F8080B00F024FEA2683146D3
:10331000206800F063FE236BA2682946606800F015
:103320008FFE2268A16852F8213043F0010342F871
:103330002130012384F84930002070BD80F84830E6
:1033400001F01AFADDE701207047000090F83D30E7
:10335000DBB2012B37D1022380F83D300268D368FD
:1033600043F00103D3600368194A934220D0B3F1BC
:10337000804F1DD0A2F57C42934219D002F58062A5
:10338000934215D002F58062934211D002F5784243
:1033900093420DD002F57052934209D0A2F59432B7
:1033A000934205D01A6842F001021A60002070476B
:1033B0009A6802F00702062A07D01A6842F0010252
:1033C0001A6000207047012070470020704700BF3E
:1033D000000001400C2914D8DFE801F00713131393
:1033E0000A1313130D13131310000368586B70475F
:1033F0000368986B70470368D86B70470368186C54
:1034000070470020704770477047704710B50446FA
:1034100003681A6912F0020F11D0DA6812F0020F75
:103420000DD06FF002021A610123037703689B69D4
:1034300013F0030F70D004F0D7FE00232377236826
:103440001A6912F0040F12D0DA6812F0040F0ED0CD
:103450006FF004021A610223237723689B6913F437
:10346000407F5FD0204604F0BFFE0023237723680F
:103470001A6912F0080F12D0DA6812F0080F0ED095
:103480006FF008021A61042323772368DB6913F0C5
:10349000030F4ED0204604F0A7FE002323772368B5
:1034A0001A6912F0100F12D0DA6812F0100F0ED055
:1034B0006FF010021A61082323772368DB6913F485
:1034C000407F3DD0204604F08FFE00232377236801
:1034D0001A6912F0010F03D0DA6812F0010F36D129
:1034E00023681A6912F0800F03D0DA6812F0800F97
:1034F00034D123681A6912F0400F03D0DA6812F051
:10350000400F32D123681A6912F0200F03D0DA6815
:1035100012F0200F30D110BDFFF775FF2046FFF7E6
:1035200073FF8AE72046FFF76EFF2046FFF76CFF28
:103530009BE72046FFF767FF2046FFF765FFACE7F4
:103540002046FFF760FF2046FFF75EFFBDE76FF004
:1035500001021A61204604F029FEC1E76FF08002E3
:103560001A61204600F0A1F8C3E76FF040021A612B
:103570002046FFF74AFFC5E76FF020021A61204698
:1035800000F092F8C7E700000368304A904212D07A
:10359000B0F1804F0FD0A2F57C4290420BD002F5E3
:1035A0008062904207D002F58062904203D002F51B
:1035B0007842904203D123F070034A681343234AB0
:1035C00090422AD0B0F1804F27D0A2F57C429042A1
:1035D00023D002F5806290421FD002F580629042B3
:1035E0001BD002F57842904217D002F570529042FB
:1035F00013D002F5806290420FD002F580629042B3
:103600000BD0A2F59832904207D002F5806290422A
:1036100003D002F58062904203D123F44073CA685C
:10362000134323F080034A69134303608B68C3622A
:103630000B688362054B984203D003F58063984280
:1036400001D10B690363012343617047000001400E
:1036500040B310B5044690F83D30F3B1022384F82E
:103660003D30214651F8040BFFF78EFF012384F80B
:10367000463084F83E3084F83F3084F8403084F897
:10368000413084F8423084F8433084F8443084F880
:10369000453084F83D30002010BD80F83C3005F006
:1036A000B5F8DBE70120704770477047026802F108
:1036B0000C0353E8003F23F490730C3242E80031CE
:1036C0000029F3D1026802F1140353E8003F23F00C
:1036D0000103143242E800310029F3D1036B012BBE
:1036E00005D0202380F83E30002303637047026832
:1036F00002F10C0353E8003F23F010030C3242E8C0
:1037000000310029F3D1ECE790F83D30DBB2212BFA
:1037100001D0022070478368B3F5805F17D0036A39
:103720005A1C02621A7803685A60C38C9BB2013B30
:103730009BB2C3844BB90268D36823F08003D36083
:103740000268D36843F04003D360002070470369E8
:10375000002BE4D1036A1B880268C3F3080353609B
:10376000036A02330362E0E738B50446026813696E
:1037700023F44053C1680B43136183680269134308
:1037800042691343C2691A430168CB6823F41643A4
:1037900023F00C031343CB600268536923F4407396
:1037A00081690B4353610368314A934206D002F5A5
:1037B0008062934202D0FFF72FFA01E0FFF73CFA54
:1037C000E369B3F5004F29D00021031849411B18C4
:1037D00041F10001C90041EA5371DB001818636828
:1037E0004FEA83024FEA937341F10001FCF7E4FED4
:1037F000204DA5FB00325109642303FB11031B017B
:103800003233A5FB03235B0903F0F00202EB011244
:1038100003F00F03216813448B6038BD00230218A6
:1038200043EB0301121841F10001C90041EA527152
:10383000D200101841F10001626892185B41FCF758
:10384000BBFE0C4DA5FB00325109642303FB1103A1
:10385000DB003233A5FB03235B095A0002F4F87244
:1038600002EB011203F00703216813448B60D4E7D5
:10387000001001401F85EB512DE9F84305460F4626
:1038800016469946DDF820802C68246837EA040340
:103890000CBF4FF0010C4FF0000CB4452DD1B8F126
:1038A000FF3FF1D0B8F1000F05D0FEF779FCA0EB97
:1038B00009004045E8D92A6802F10C0353E8003FAB
:1038C00023F4D0730C3242E800310029F3D12A6886
:1038D00002F1140353E8003F23F00103143242E8DD
:1038E00000310029F3D1202385F83D3085F83E30A2
:1038F000002385F83C30032000E00020BDE8F88379
:10390000704758B310B5044690F83D300BB32423EC
:1039100084F83D302268D36823F40053D3602046F6
:10392000FFF722FF2268136923F490431361226892
:10393000536923F02A0353612268D36843F4005388
:10394000D36000202064202384F83D3084F83E308A
:1039500010BD80F83C30FFF7D3FFD8E70120704757
:103960002DE9F04182B01E4690F83D30DBB2202BAD
:1039700054D104460D469046002953D0002A53D016
:1039800090F83C30012B51D0012380F83C300023CB
:103990000364212380F83D30FEF702FC0746A4F8BB
:1039A0002480A4F82680A368B3F5805F05D04FF08B
:1039B0000008002384F83C3012E0236913B14FF073
:1039C0000008F6E7A8460025F3E738F8023B22682E
:1039D000C3F308035360E28C92B2013A92B2E284DC
:1039E000E38C9BB273B100963B46002280212046B7
:1039F000FFF742FFE0B9002DE7D015F8012B23684F
:103A00005A60E8E700963B46002240212046FFF737
:103A100033FF78B9202384F83D3000E0022002B063
:103A2000BDE8F0810120FAE70120F8E70220F6E77F
:103A30000320F4E70320F2E72DE9F04182B01E46AF
:103A400090F83E30DBB2202B5CD104460D46904608
:103A500000295BD0002A5BD090F83C30012B59D074
:103A6000012380F83C3000230364222280F83E20AA
:103A70000363FEF795FB0746A4F82C80A4F82E807C
:103A8000A368B3F5805F05D04FF00008002384F8E9
:103A90003C3017E0236913B14FF00008F6E7A84661
:103AA0000025F3E723685B68C3F3080328F8023BAB
:103AB00003E023685B682B700135E28D92B2013A16
:103AC00092B2E285E38D9BB2BBB100963B460022E9
:103AD00020212046FFF7D0FEF0B9002DE2D0A368E8
:103AE000B3F5805FE5D013B92369002BE1D02368DB
:103AF0005B6803F07F032B70DEE7202384F83E3001
:103B0000002000E0022002B0BDE8F0810120FAE7C9
:103B10000120F8E70220F6E70320F4E7704708B534
:103B20000168CA6822F04002CA60202280F83D2065
:103B3000FFF7F4FF002008BD704708B5806B002335
:103B4000C385C384FFF7F8FF08BD704790F83E3087
:103B5000DBB2222B67D18368B3F5805F4DD0826AD8
:103B6000B3F5805F04D0002B54D10369002B51D1F1
:103B700003685B681370836A01338362C38D9BB2F1
:103B8000013B9BB2C385002B4FD100B583B00268C7
:103B9000D36823F02003D3600268D36823F48073D2
:103BA000D3600268536923F001035361202380F836
:103BB0003E30036B012B33D100230363026802F113
:103BC0000C0353E8003F23F010030C3242E80031AD
:103BD0000029F3D103681A6812F0100F06D00022F2
:103BE00001921A6801925B680193019B818DFFF736
:103BF000ACFF002003B05DF804FB0269002AAED1DF
:103C0000826A03685B68C3F308031380836A023324
:103C10008362B3E703685B6803F07F031370AAE76E
:103C200004F03EFEE5E702207047002070470000E8
:103C300030B583B0044602681368D068516913F048
:103C40000F0505D113F0200F02D010F0200F19D16D
:103C50002DB111F0010119D110F4907F16D1216B13
:103C600001297DD013F0800F03D010F0800F40F0B9
:103C7000158113F0400F03D010F0400F40F0128177
:103C800003B030BD2046FFF761FFF9E713F0010FE5
:103C900006D010F4807F03D0226C42F0010222642F
:103CA00013F0040F04D019B1226C42F00202226416
:103CB00013F0020F04D019B1226C42F00402226406
:103CC00013F0080F07D010F0200F00D119B1226CAB
:103CD00042F008022264226C002AD1D013F0200F97
:103CE00002D010F0200F29D123685B6903F0400354
:103CF000226C12F0080F00D163B32046FFF7D6FC08
:103D000023685B6913F0400F20D0226802F114038E
:103D100053E8003F23F04003143242E80031002909
:103D2000F3D1A36B73B1614A1A65A06BFEF704FB74
:103D30000028A5D0A06B036D9847A1E72046FFF7A8
:103D400005FFD1E72046FFF7F7FE99E72046FFF78A
:103D5000F3FE95E72046FFF7EFFE002323648FE78D
:103D600013F0100F3FF47EAF10F0100F3FF47AAF56
:103D7000002301931368019353680193019B5369D6
:103D800013F0400F50D0A26B13685B689BB2002BFE
:103D90003FF476AFA18D99427FF672AFE385D36988
:103DA000B3F5807F37D0226802F10C0353E8003F5F
:103DB00023F480730C3242E800310029F3D12268E9
:103DC00002F1140353E8003F23F00103143242E8E8
:103DD00000310029F3D1226802F1140353E8003FB7
:103DE00023F04003143242E800310029F3D12023AC
:103DF00084F83E3000232363226802F10C0353E869
:103E0000003F23F010030C3242E800310029F3D1C7
:103E1000A06BFEF747FAA18DE38D9BB2C91A89B258
:103E20002046FFF792FE2BE7A18DE38D9BB2C91AC6
:103E300089B2E38D9BB2002B3FF422AF00293FF4FF
:103E40001FAF226802F10C0353E8003F23F4907384
:103E50000C3242E800300028F3D1226802F114034A
:103E600053E8003F23F00103143242E800300028F9
:103E7000F3D1202384F83E3000232363226802F12B
:103E80000C0353E8003F23F010030C3242E80030EB
:103E90000028F3D12046FFF758FEF1E62046FFF751
:103EA00033FCEDE62046FFF73AFEE9E63B3B00082F
:103EB00090F83D3090F83E0018437047816282854B
:103EC000C28500230364222280F83E2080F83C3023
:103ED000036923B10268D36843F48073D360026836
:103EE000536943F0010353610268D36843F0200330
:103EF000D3600020704708B590F83E30DBB2202B2D
:103F00000DD171B17AB190F83C30012B0DD0012365
:103F100080F83C3000230363FFF7D0FF00E002206D
:103F200008BD0120FCE70120FAE70220F8E770470E
:103F300008B503685A6812F4007F03D09A6812F03B
:103F4000010F00D108BD6FF001029A60FFF7EFFF8B
:103F5000F8E7000030B40A6850F8223023F001037B
:103F600040F822308B68082B2AD000244A6822436C
:103F70001343CA6813430A6913434A691343CA695E
:103F800013430A6A13434A6A13438A6A1343CA6A89
:103F900013430A6B13438A6913434A6B1343CA6B77
:103FA00013430C6850F824500B4A2A401A4340F837
:103FB00024204B6BB3F5801F04D0002030BC704729
:103FC0004024D3E70A68002AF7D0026822F480125E
:103FD00013430360F1E700BF8000E0FF10B501323A
:103FE00050F8223003F0404C0B684C6843EA04134D
:103FF0008C6843EA0423CC6843EA04430C6904F167
:10400000FF3E43EA0E534C69A4F1020E43EA0E63ED
:104010008C6923434CEA030340F82230036813F40D
:10402000801F0BD0436823F470030A69013A43EA06
:104030000252436823F4700313434360002010BD11
:10404000B3F5804F05D06FF0704340F82230002068
:10405000704730B450F82230094C1C400B684D6852
:1040600043EA05138D6843EA05238D692B43C9682C
:1040700043EA0143234340F82230002030BC70471C
:104080000000F0CF08B50120FEF776FA08BD08B5AC
:104090000420FEF771FA08BD08B50820FEF76CFA97
:1040A00008BD08B54FF40050FEF766FA08BD0000E1
:1040B00010B50446642004F00BF9082C39D011D84F
:1040C000012C21D0042C33D104212548FEF746FAD7
:1040D00070BB244AD2F88032B3FA83F35B09C2F88A
:1040E000803225E0B4F5005F22D14FF400511E4824
:1040F000FEF734FAE0B91B4AD2F88432B3FA83F3FC
:104100005B09C2F8843213E001211848FEF726FA51
:1041100070B1144AD2F88432B3FA83F35B09C2F85F
:104120008032D2F88032B3FA83F35B09C2F884326A
:1041300010BD08210A48FEF711FA0028F8D1094AF3
:10414000D2F88432B3FA83F35B09C2F88432D2F82E
:104150008032B3FA83F35B09C2F88032E8E700BF2C
:10416000001C024000804042000802400000024063
:1041700082B0ADF80600BDF806309BB2ADF806304F
:10418000BDF806309BB2024AA2F8FE3002B070477A
:1041900000FF076082B0ADF80600BDF806309BB2A4
:1041A000ADF80630BDF806309BB2024AA2F80031E5
:1041B00002B0704700FF076082B0054BB3F80031D2
:1041C0009BB2ADF80630BDF8060080B202B0704771
:1041D00000FF0760024BA3F8FE00A3F80011704730
:1041E00000FF0760024B1A89024BA3F8FE207047BC
:1041F000840B002000FF076070B505460C46404B5D
:104200009B8841F66312934217D045F210529342B5
:1042100057D03B4E7089FFF7ABFF280AFFF7BAFF74
:10422000E8B2FFF7B7FFB089FFF7A2FF200AFFF758
:10423000B1FFE0B2FFF7AEFF70BD314B9B7953BBCE
:104240002F4B1888451BADB2013DADB25889FFF721
:104250008FFF0020FFF79EFF0020FFF79BFF280A3B
:10426000FFF798FFE8B2FFF795FF254DA889FFF704
:104270007FFF200AFFF78EFFE0B2FFF78BFF688811
:104280000138C0F30F20FFF785FF68880138C0B2FE
:10429000FFF780FFD0E71A4E7089FFF769FF280A01
:1042A000FFF778FFE8B2FFF775FF30880138C0F3F9
:1042B0000F20FFF76FFF30880138C0B2FFF76AFFA9
:1042C000D3E70F4E7089FFF753FF280AFFF762FF0D
:1042D0007089013080B2FFF74BFFE8B2FFF75AFF59
:1042E000B089FFF745FF200AFFF754FFB08901307E
:1042F00080B2FFF73DFFE0B2FFF74CFF9CE700BF45
:10430000840B002010B5764B9B79012B10D02BB974
:10431000734B9A8841F663139A420FD001380628EE
:1043200000F28880DFE800F078767472706E160014
:104330006B4A918841F663129142E8D00728EDD884
:10434000DFE800F07674707206046E6C002402E000
:10435000802400E0E024624B9B8845F21052934297
:104360006AD0362049F24132934207D047F289722F
:10437000934203D047F29672934201D144F008046D
:104380002146FFF727FF564B9B8841F66312934265
:104390000AD014F0200F52D0514A1188528891420D
:1043A00002D24F480280418045F2105293424FD0D2
:1043B0004B4C6089FFF7DCFE0020FFF7EBFE00208E
:1043C000FFF7E8FE20880138C0F30F20FFF7E2FE78
:1043D00020880138C0B2FFF7DDFEA089FFF7C8FED4
:1043E0000020FFF7D7FE0020FFF7D4FE60880138D9
:1043F000C0F30F20FFF7CEFE60880138C0B2FFF790
:10440000C9FE10BDA024A6E76024A4E72024A2E7EB
:10441000C024A0E740249EE780249CE740249AE73C
:10442000C02498E7202496E7602494E7E02492E7EC
:10443000A02490E700248EE74FF4585092E7284AD2
:10444000118852889142AFD9254802804180ABE75C
:10445000234C6089FFF78CFE0020FFF79BFE6089EC
:10446000013080B2FFF784FE0020FFF793FE6089E1
:10447000023080B2FFF77CFE20880138C0F30F20A5
:10448000FFF788FE6089033080B2FFF771FE208855
:104490000138C0B2FFF77EFEA089FFF769FE002059
:1044A000FFF778FEA089013080B2FFF761FE00209F
:1044B000FFF770FEA089023080B2FFF759FE6088D6
:1044C0000138C0F30F20FFF765FEA089033080B2EA
:1044D000FFF74EFE60880138C0B2FFF75BFE90E741
:1044E000840B00202DE9F04104460E461546394B59
:1044F0009B8845F2105C63453AD041F663129342C3
:1045000054D1344B9B792BB9324B1888041BA4B27D
:10451000013CA4B22F4F7889FFF72AFE4FEA1428F6
:104520004046FFF737FEE4B22046FFF733FE404631
:10453000FFF730FE2046FFF72DFEB889FFF718FE83
:10454000340A2046FFF726FEF6B23046FFF722FE79
:104550002046FFF71FFE3046FFF71CFE1D4B198952
:104560001D4BA3F8FE10AAB2A3F80021BDE8F0810C
:10457000184F7889FFF7FCFD200AFFF70BFE7889BA
:10458000013080B2FFF7F4FDE0B2FFF703FEB88917
:10459000FFF7EEFD300AFFF7FDFDB889013080B26C
:1045A000FFF7E6FDF0B2FFF7F5FDD7E7094F788991
:1045B000FFF7DEFD200AFFF7EDFDE0B2FFF7EAFDB1
:1045C000B889FFF7D5FD300AFFF7E4FDF0B2FFF739
:1045D000E1FDC3E7840B002000FF0760000000003E
:1045E00010B50446BE20FFF7C3FD0520FFF7D2FD3E
:1045F0002046FBF757FF0CA3D3E90023FDF740FA51
:10460000FBF7BAFF80B2FFF7C5FD0120FFF7C2FD3F
:10461000FF20FFF7BFFD0020FFF7BCFD0020FFF7E4
:10462000B9FD10BDAFF3008066666666666604403D
:1046300008B5504B9871002852D1F0221A804FF4DF
:10464000A0725A809B8845F21052934221D041F6C5
:10465000631293422ED0474A2C2111812A21518185
:104660002B21918145F21032934203D047F296728A
:10467000934206D13F4A4FF4A07111804FF4F0717C
:10468000518049F60602934222D00020FFF73AFEFD
:1046900008BD384A4FF4305111814FF428515181EF
:1046A0004FF42C5191814FF4F07111804FF4487107
:1046B0005180D7E72F4A2C2111812B2151812A21AA
:1046C00091814FF4F07111804FF448715180C9E726
:1046D000284B4FF4F0721A804FF448725A80D4E796
:1046E000244B4FF4A0721A80F0225A809B8845F226
:1046F000105293420FD041F6631293421CD049F6F8
:104700000602934218D01B4A2C2111812A21518183
:104710002B2191811DE0174A4FF4305111814FF444
:10472000285151814FF42C5191814FF448711180DF
:104730004FF4F07151800CE00E4A2C2111812A2196
:1047400051812B2191814FF4487111804FF4F07108
:10475000518045F21032934203D047F29672934251
:1047600093D1044B4FF4F0721A804FF4A0725A8028
:104770008BE700BF840B002000B589B000220092B7
:104780001B4B996B41F001019963996B01F0010199
:10479000009100990192196B41F008011963196B9E
:1047A00001F008010191019902921A6B42F0100286
:1047B0001A631B6B03F010030293029B4EF2B37358
:1047C00003930223049301230593032306930C23ED
:1047D00007930DEB03010748FDF7C2FD4FF6807309
:1047E000039303A90448FDF7BBFD09B05DF804FB82
:1047F00000380240000C02400010024038B5054667
:104800000A4B1A885C8802FB04F400210846FFF773
:10481000F3FCFFF7E7FC002204E0ABB20449A1F887
:1048200000310132A242F8D338BD00BF840B002012
:1048300000FF076010B594B0002400945F4B1A6B22
:1048400042F002021A631B6B03F002030093009B09
:1048500020230F93012310931193032312930FA985
:104860005748FDF77DFD57484FF02043036003F59F
:10487000827343608460C460046110234361846177
:10488000C46144624FF480538362C4624FF4804336
:104890000363446384634FF48013C3630F2308935B
:1048A000099446220A920E9401930294039307946A
:1048B00001AA08A9FEF71DFD322003F009FDD3204F
:1048C000FFF756FCFFF778FC3F4CA080FFF774FC25
:1048D000A080FFF771FCA0800002A080FFF76CFCB5
:1048E000A388184380B2A08049F24133984273D123
:1048F000354CA188354804F01BF9A38849F24132B0
:10490000934200F0278147F28972934200F03A8285
:1049100045F21032934200F0088345F21052934260
:1049200001F07C8247F29672934202F0F58149F6DB
:104930000602934202F0D38241F66312934202F0E0
:104940006E84214B9B8849F24132934217D045F245
:104950001032934213D045F2105293420FD041F6D9
:10496000631293420BD047F28972934207D047F209
:104970009672934203D049F60602934210D1144B2B
:104980005A6822F00F025A605A6822F470625A6024
:104990005A6842F005025A605A6842F4A0625A60AE
:1049A0000020FFF745FE0B4B0122C3F894224FF67F
:1049B000FF70FFF723FF14B010BD00BF00380240A6
:1049C00000040240340B0020840B0020140801086E
:1049D000000100A0008040420420FFF7C9FBFFF760
:1049E000EBFBA080FFF7E8FBA080FFF7E5FBA080D2
:1049F0000002A080FFF7E0FBA388184380B2A080EC
:104A000048F25253984200F0A180DD4B9A8847F259
:104A100089739A423FF46CAFD420FFF7A9FBFFF7EC
:104A2000CBFBD74CA080FFF7C7FBA080FFF7C4FBF0
:104A3000A0800002A080FFF7BFFBA388184380B2CC
:104A4000A08045F2103398423FF452AFD320FFF7D5
:104A50008FFBFFF7B1FBA080FFF7AEFBA080FFF755
:104A6000ABFBA0800002A080FFF7A6FBA388184341
:104A700080B2A08047F2967398423FF439AF552137
:104A80004FF47040FFF7A6FBAA214FF20100FFF799
:104A9000A1FB52214FF20200FFF79CFB08214FF2CD
:104AA0000300FFF797FB01214FF20400FFF792FB91
:104AB0004FF44540FFF75CFBFFF77EFBA080000250
:104AC000A0804CF20150FFF753FBFFF775FBA38862
:104AD0001843A080052003F0FBFBA28845F2105389
:104AE0009A423FF405AFD320FFF742FBFFF764FB88
:104AF000A080FFF761FBA080FFF75EFBA0800002B3
:104B0000A080FFF759FBA38803439BB2A38049F61B
:104B1000060293423FF4ECAEA120FFF729FBFFF71A
:104B20004BFBA080FFF748FBA0800002A080FFF7AE
:104B300043FBA38803439BB2A38045F26172934277
:104B40007FF4D6AE41F66312A280D1E647F28972B5
:104B5000A2805AE7CF20FFF70BFB0020FFF71AFBDC
:104B6000C120FFF717FB3020FFF714FBED20FFF704
:104B7000FFFA6420FFF70EFB0320FFF70BFB122068
:104B8000FFF708FB8120FFF705FBE820FFF7F0FAAD
:104B90008520FFF7FFFA1020FFF7FCFA7A20FFF7D5
:104BA000F9FACB20FFF7E4FA3920FFF7F3FA2C20CB
:104BB000FFF7F0FA0020FFF7EDFA3420FFF7EAFAEA
:104BC0000220FFF7E7FAF720FFF7D2FA2020FFF7DD
:104BD000E1FAEA20FFF7CCFA0020FFF7DBFA002029
:104BE000FFF7D8FAC020FFF7C3FA1B20FFF7D2FA6D
:104BF000C120FFF7BDFA0120FFF7CCFAC520FFF76F
:104C0000B7FA3020FFF7C6FA3020FFF7C3FAC72003
:104C1000FFF7AEFAB720FFF7BDFA3620FFF7A8FA84
:104C20004820FFF7B7FA3A20FFF7A2FA5520FFF71E
:104C3000B1FAB120FFF79CFA0020FFF7ABFA1A2077
:104C4000FFF7A8FAB620FFF793FA0A20FFF7A2FAB7
:104C5000A220FFF79FFAF220FFF78AFA0020FFF761
:104C600099FA2620FFF784FA0120FFF793FAE02053
:104C7000FFF77EFA0F20FFF78DFA2A20FFF78AFA56
:104C80002820FFF787FA0820FFF784FA0E20FFF7A5
:104C900081FA0820FFF77EFA5420FFF77BFAA9205B
:104CA000FFF778FA4320FFF775FA0A20FFF772FA48
:104CB0000F20FFF76FFA0020FFF76CFA0020FFF7D4
:104CC00069FA0020FFF766FA0020FFF763FAE12097
:104CD000FFF74EFA0020FFF75DFA1520FFF75AFAAA
:104CE0001720FFF757FA0720FFF754FA1120FFF7B4
:104CF00051FA0620FFF74EFA2B20FFF74BFA562009
:104D0000FFF748FA3C20FFF745FA0520FFF742FA83
:104D10001020FFF73FFA0F20FFF73CFA3F20FFF784
:104D200039FA3F20FFF736FA0F20FFF733FA2B202E
:104D3000FFF71EFA0020FFF72DFA0020FFF72AFAEE
:104D40000120FFF727FA3F20FFF724FA2A20FFF778
:104D50000FFA0020FFF71EFA0020FFF71BFA0020D1
:104D6000FFF718FAEF20FFF715FA1120FFF700FA06
:104D7000782003F0ADFA2920FFF7FAF9E1E500BF4A
:104D8000840B00201120FFF7F3F9782003F0A0FA3C
:104D90003620FFF7EDF90020FFF7FCF93A20FFF786
:104DA000E7F90520FFF7F6F9B220FFF7E1F90C204B
:104DB000FFF7F0F90C20FFF7EDF90020FFF7EAF913
:104DC0003320FFF7E7F93320FFF7E4F9B720FFF7C7
:104DD000CFF93520FFF7DEF9BB20FFF7C9F9322004
:104DE000FFF7D8F9C020FFF7C3F90C20FFF7D2F97D
:104DF000C220FFF7BDF90120FFF7CCF9C320FFF770
:104E0000B7F91020FFF7C6F9C420FFF7B1F9202049
:104E1000FFF7C0F9C620FFF7ABF90F20FFF7BAF98B
:104E2000D020FFF7A5F9A420FFF7B4F9A120FFF7E0
:104E3000B1F9E020FFF79CF9D020FFF7ABF9002093
:104E4000FFF7A8F90220FFF7A5F90720FFF7A2F95D
:104E50000A20FFF79FF92820FFF79CF93220FFF77F
:104E600099F94420FFF796F94220FFF793F90620BD
:104E7000FFF790F90E20FFF78DF91220FFF78AF95E
:104E80001420FFF787F91720FFF784F9E120FFF7D7
:104E90006FF9D020FFF77EF90020FFF77BF90220A1
:104EA000FFF778F90720FFF775F90A20FFF772F985
:104EB0002820FFF76FF93120FFF76CF95420FFF736
:104EC00069F94720FFF766F90E20FFF763F91C2008
:104ED000FFF760F91720FFF75DF91B20FFF75AF97C
:104EE0001E20FFF757F92A20FFF742F90020FFF7AD
:104EF00051F90020FFF74EF90020FFF74BF9EF20A2
:104F0000FFF748F92B20FFF733F90020FFF742F9AC
:104F10000020FFF73FF90120FFF73CF93F20FFF7A2
:104F200039F92920FFF724F90BE5ED20FFF720F9E7
:104F30000120FFF72FF9FE20FFF72CF9EE20FFF7F5
:104F400017F9DE20FFF726F92120FFF723F9F120DA
:104F5000FFF70EF90120FFF71DF9DF20FFF708F931
:104F60001020FFF717F9C420FFF702F98F20FFF791
:104F700011F9C620FFF7FCF80020FFF70BF9E2203B
:104F8000FFF708F9E220FFF705F9E220FFF702F941
:104F9000BF20FFF7EDF8AA20FFF7FCF8B020FFF7DD
:104FA000E7F80D20FFF7F6F80020FFF7F3F80D20E3
:104FB000FFF7F0F80020FFF7EDF81120FFF7EAF80F
:104FC0000020FFF7E7F81920FFF7E4F80020FFF7CB
:104FD000E1F82120FFF7DEF80020FFF7DBF82D20B5
:104FE000FFF7D8F80020FFF7D5F83D20FFF7D2F8FB
:104FF0000020FFF7CFF85D20FFF7CCF80020FFF787
:10500000C9F85D20FFF7C6F80020FFF7C3F8B1200C
:10501000FFF7AEF88020FFF7BDF80020FFF7BAF8E1
:105020008B20FFF7B7F80020FFF7B4F89620FFF7C2
:10503000B1F80020FFF7AEF8B220FFF799F8002092
:10504000FFF7A8F80020FFF7A5F80220FFF7A2F865
:105050000020FFF79FF80320FFF79CF80020FFF7E0
:1050600099F8B320FFF784F80020FFF793F80020A9
:10507000FFF790F80020FFF78DF80020FFF78AF87F
:105080000020FFF787F80020FFF784F80020FFF7E3
:1050900081F80020FFF77EF80020FFF77BF8002062
:1050A000FFF778F80020FFF775F80020FFF772F897
:1050B0000020FFF76FF80020FFF76CF80020FFF7E3
:1050C00069F80020FFF766F80020FFF763F800207A
:1050D000FFF760F80020FFF75DF80020FFF75AF8AF
:1050E0000020FFF757F80020FFF754F80020FFF7E3
:1050F00051F80020FFF74EF8B420FFF739F88B2065
:10510000FFF748F80020FFF745F89620FFF742F830
:105110000020FFF73FF8A120FFF73CF80020FFF741
:1051200039F8B520FFF724F80220FFF733F8002004
:10513000FFF730F80320FFF72DF80020FFF72AF8DB
:105140000420FFF727F80020FFF724F8B620FFF728
:105150000FF80020FFF71EF80020FFF71BF8B7201C
:10516000FFF706F80020FFF715F80020FFF712F808
:105170003F20FFF70FF80020FFF70CF85E20FFF745
:1051800009F80020FFF706F86420FFF703F8002075
:10519000FFF700F88C20FEF7FDFF0020FEF7FAFF76
:1051A000AC20FEF7F7FF0020FEF7F4FFDC20FEF74F
:1051B000F1FF0020FEF7EEFF7020FEF7EBFF00206E
:1051C000FEF7E8FF9020FEF7E5FF0020FEF7E2FF84
:1051D000EB20FEF7DFFF0020FEF7DCFFDC20FEF710
:1051E000D9FF0020FEF7D6FFB820FEF7C1FF002050
:1051F000FEF7D0FF0020FEF7CDFF0020FEF7CAFF2C
:105200000020FEF7C7FF0020FEF7C4FF0020FEF7D6
:10521000C1FF0020FEF7BEFF0020FEF7BBFFBA2053
:10522000FEF7A6FF2420FEF7B5FF0020FEF7B2FF31
:105230000020FEF7AFFF0020FEF7ACFFC120FEF715
:1052400097FF2020FEF7A6FF0020FEF7A3FF5420C3
:10525000FEF7A0FF0020FEF79DFFFF20FEF79AFF5C
:105260000020FEF797FFC220FEF782FF0A20FEF71C
:1052700091FF0020FEF78EFF0420FEF78BFF002039
:10528000FEF788FFC320FEF773FF3C20FEF782FF86
:105290000020FEF77FFF3A20FEF77CFF0020FEF79C
:1052A00079FF3920FEF776FF0020FEF773FF3720E5
:1052B000FEF770FF0020FEF76DFF3C20FEF76AFF4F
:1052C0000020FEF767FF3620FEF764FF0020FEF7A0
:1052D00061FF3220FEF75EFF0020FEF75BFF2F200C
:1052E000FEF758FF0020FEF755FF2C20FEF752FF77
:1052F0000020FEF74FFF2920FEF74CFF0020FEF7AD
:1053000049FF2620FEF746FF0020FEF743FF24203A
:10531000FEF740FF0020FEF73DFF2420FEF73AFF96
:105320000020FEF737FF2320FEF734FF0020FEF7B2
:1053300031FF3C20FEF72EFF0020FEF72BFF36202A
:10534000FEF728FF0020FEF725FF3220FEF722FFA0
:105350000020FEF71FFF2F20FEF71CFF0020FEF7A6
:1053600019FF2C20FEF716FF0020FEF713FF29205F
:10537000FEF710FF0020FEF70DFF2620FEF70AFFC4
:105380000020FEF707FF2420FEF704FF0020FEF7B1
:1053900001FF2420FEF7FEFE0020FEF7FBFE232087
:1053A000FEF7F8FE0020FEF7F5FEC420FEF7E0FE53
:1053B0006220FEF7EFFE0020FEF7ECFE0520FEF770
:1053C000E9FE0020FEF7E6FE8420FEF7E3FE002063
:1053D000FEF7E0FEF020FEF7DDFE0020FEF7DAFE2D
:1053E0001820FEF7D7FE0020FEF7D4FEA420FEF71B
:1053F000D1FE0020FEF7CEFE1820FEF7CBFE0020E7
:10540000FEF7C8FE5020FEF7C5FE0020FEF7C2FEE4
:105410000C20FEF7BFFE0020FEF7BCFE1720FEF7B3
:10542000B9FE0020FEF7B6FE9520FEF7B3FE002081
:10543000FEF7B0FEF320FEF7ADFE0020FEF7AAFE59
:10544000E620FEF7A7FE0020FEF7A4FEC520FEF72B
:105450008FFE3220FEF79EFE0020FEF79BFE4420CA
:10546000FEF798FE0020FEF795FE6520FEF792FEFF
:105470000020FEF78FFE7620FEF78CFE0020FEF760
:1054800089FE8820FEF786FE0020FEF783FEC620F8
:10549000FEF76EFE2020FEF77DFE0020FEF77AFE6E
:1054A0001720FEF777FE0020FEF774FE0120FEF7BE
:1054B00071FE0020FEF76EFEC720FEF759FE0020A9
:1054C000FEF768FE0020FEF765FE0020FEF762FE94
:1054D0000020FEF75FFEC820FEF74AFE0020FEF720
:1054E00059FE0020FEF756FE0020FEF753FE002076
:1054F000FEF750FEC920FEF73BFE0020FEF74AFEF5
:105500000020FEF747FE0020FEF744FE0020FEF7D5
:1055100041FE0020FEF73EFE0020FEF73BFE00208D
:10552000FEF738FE0020FEF735FE0020FEF732FEC3
:105530000020FEF72FFE0020FEF72CFE0020FEF7D5
:1055400029FE0020FEF726FE0020FEF723FE0020A5
:10555000FEF720FE0020FEF71DFEE020FEF708FE0D
:105560001620FEF717FE0020FEF714FE1C20FEF7A3
:1055700011FE0020FEF70EFE2120FEF70BFE00209C
:10558000FEF708FE3620FEF705FE0020FEF702FEBD
:105590004620FEF7FFFD0020FEF7FCFD5220FEF73F
:1055A000F9FD0020FEF7F6FD6420FEF7F3FD002074
:1055B000FEF7F0FD7A20FEF7EDFD0020FEF7EAFD94
:1055C0008B20FEF7E7FD0020FEF7E4FD9920FEF7B3
:1055D000E1FD0020FEF7DEFDA820FEF7DBFD002048
:1055E000FEF7D8FDB920FEF7D5FD0020FEF7D2FD6D
:1055F000C420FEF7CFFD0020FEF7CCFDCA20FEF749
:10560000C9FD0020FEF7C6FDD220FEF7C3FD002035
:10561000FEF7C0FDD920FEF7BDFD0020FEF7BAFD64
:10562000E020FEF7B7FD0020FEF7B4FDF320FEF703
:10563000B1FD0020FEF7AEFDE120FEF799FD16203A
:10564000FEF7A8FD0020FEF7A5FD1C20FEF7A2FD39
:105650000020FEF79FFD2220FEF79CFD0020FEF7B4
:1056600099FD3620FEF796FD0020FEF793FD4520BC
:10567000FEF790FD0020FEF78DFD5220FEF78AFD1B
:105680000020FEF787FD6420FEF784FD0020FEF772
:1056900081FD7A20FEF77EFD0020FEF77BFD8B204A
:1056A000FEF778FD0020FEF775FD9920FEF772FDEC
:1056B0000020FEF76FFDA820FEF76CFD0020FEF72E
:1056C00069FDB920FEF766FD0020FEF763FDC420EA
:1056D000FEF760FD0020FEF75DFDCA20FEF75AFDD3
:1056E0000020FEF757FDD220FEF754FD0020FEF704
:1056F00051FDD820FEF74EFD0020FEF74BFDE020C7
:10570000FEF748FD0020FEF745FDF320FEF742FDC1
:105710000020FEF73FFDE220FEF72AFD0520FEF700
:1057200039FD0020FEF736FD0B20FEF733FD00208B
:10573000FEF730FD1B20FEF72DFD0020FEF72AFDB1
:105740003420FEF727FD0020FEF724FD4420FEF75D
:1057500021FD0020FEF71EFD4F20FEF71BFD00205F
:10576000FEF718FD6120FEF715FD0020FEF712FD83
:105770007920FEF70FFD0020FEF70CFD8820FEF7D4
:1057800009FD0020FEF706FD9720FEF703FD00202F
:10579000FEF700FDA620FEF7FDFC0020FEF7FAFC58
:1057A000B720FEF7F7FC0020FEF7F4FCC220FEF75E
:1057B000F1FC0020FEF7EEFCC720FEF7EBFC00201A
:1057C000FEF7E8FCD120FEF7E5FC0020FEF7E2FC46
:1057D000D620FEF7DFFC0020FEF7DCFCDD20FEF724
:1057E000D9FC0020FEF7D6FCF320FEF7D3FC002006
:1057F000FEF7D0FCE320FEF7BBFC0520FEF7CAFC59
:105800000020FEF7C7FC0A20FEF7C4FC0020FEF7CC
:10581000C1FC1C20FEF7BEFC0020FEF7BBFC3320C1
:10582000FEF7B8FC0020FEF7B5FC4420FEF7B2FC02
:105830000020FEF7AFFC5020FEF7ACFC0020FEF786
:10584000A9FC6220FEF7A6FC0020FEF7A3FC78204E
:10585000FEF7A0FC0020FEF79DFC8820FEF79AFCD6
:105860000020FEF797FC9720FEF794FC0020FEF73F
:1058700091FCA620FEF78EFC0020FEF78BFCB720E3
:10588000FEF788FC0020FEF785FCC220FEF782FCB4
:105890000020FEF77FFCC720FEF77CFC0020FEF70F
:1058A00079FCD120FEF776FC0020FEF773FCD520B2
:1058B000FEF770FC0020FEF76DFCDD20FEF76AFCB1
:1058C0000020FEF767FCF320FEF764FC0020FEF7E3
:1058D00061FCE420FEF74CFC0120FEF75BFC00209D
:1058E000FEF758FC0120FEF755FC0020FEF752FCA5
:1058F0000220FEF74FFC0020FEF74CFC2A20FEF7AA
:1059000049FC0020FEF746FC3C20FEF743FC00204B
:10591000FEF740FC4B20FEF73DFC0020FEF73AFC72
:105920005D20FEF737FC0020FEF734FC7420FEF704
:1059300031FC0020FEF72EFC8420FEF72BFC00201B
:10594000FEF728FC9320FEF725FC0020FEF722FC42
:10595000A220FEF71FFC0020FEF71CFCB320FEF780
:1059600019FC0020FEF716FCBE20FEF713FC0020F9
:10597000FEF710FCC420FEF70DFC0020FEF70AFC29
:10598000CD20FEF707FC0020FEF704FCD320FEF735
:1059900001FC0020FEF7FEFBDD20FEF7FBFB0020F4
:1059A000FEF7F8FBF320FEF7F5FB0020FEF7F2FB15
:1059B000E520FEF7DDFB0020FEF7ECFB0020FEF704
:1059C000E9FB0020FEF7E6FB0020FEF7E3FB0220E8
:1059D000FEF7E0FB0020FEF7DDFB2920FEF7DAFBF7
:1059E0000020FEF7D7FB3C20FEF7D4FB0020FEF79B
:1059F000D1FB4B20FEF7CEFB0020FEF7CBFB5D205A
:105A0000FEF7C8FB0020FEF7C5FB7420FEF7C2FBC3
:105A10000020FEF7BFFB8420FEF7BCFB0020FEF752
:105A2000B9FB9320FEF7B6FB0020FEF7B3FBA220E4
:105A3000FEF7B0FB0020FEF7ADFBB320FEF7AAFB9C
:105A40000020FEF7A7FBBE20FEF7A4FB0020FEF718
:105A5000A1FBC420FEF79EFB0020FEF79BFBCD20A0
:105A6000FEF798FB0020FEF795FBD320FEF792FB94
:105A70000020FEF78FFBDC20FEF78CFB0020FEF7FA
:105A800089FBF320FEF786FB0020FEF783FBE62070
:105A9000FEF76EFB1120FEF77DFB0020FEF77AFB80
:105AA0003420FEF777FB0020FEF774FB5620FEF74C
:105AB00071FB0020FEF76EFB7620FEF76BFB0020EB
:105AC000FEF768FB7720FEF765FB0020FEF762FB20
:105AD0006620FEF75FFB0020FEF75CFB8820FEF7E8
:105AE00059FB0020FEF756FB9920FEF753FB0020E0
