:020000040800F2
:100000000000032035150008F9140008FB1400084F
:10001000FD140008FF14000801150008000000008E
:1000200000000000000000000000000003150008B0
:100030000515000800000000071500080915000854
:10004000652E00088515000885150008851500082F
:1000500085150008851500087B2D0008851500080A
:10006000852D00088F2D00088515000885150008CE
:1000700085150008851500088515000885150008F8
:1000800085150008851500088515000885150008E8
:1000900085150008851500088515000885150008D8
:1000A00085150008851500088515000885150008C8
:1000B00085150008293100088515000885150008F8
:1000C00085150008851500088515000885150008A8
:1000D00085150008851500085D31000885150008A4
:1000E000992D00088515000885150008851500085C
:1000F0008515000885150008851500088515000878
:100100008515000885150008851500088515000867
:100110008515000885150008851500088515000857
:100120008515000885150008851500088515000847
:100130008515000885150008851500088515000837
:100140008515000885150008851500088515000827
:100150008515000885150008851500088515000817
:100160008515000885150008851500088515000807
:100170008515000885150008851500080000000099
:1001800085150008851500088515000885150008E7
:1001900085150008851500088515000885150008D7
:0C01A0008515000885150008851500086D
:1001AC0010B5054C237833B9044B13B10448AFF3A5
:1001BC0000800123237010BD3C04002000000000CF
:1001CC00EC34000808B5034B1BB103490348AFF3EB
:1001DC00008008BD0000000040040020EC34000842
:1001EC0053B94AB9002908BF00281CBF4FF0FF3192
:1001FC004FF0FF3001F0DEB8ADF1080C6DE904CE24
:10020C0000F006F8DDF804E0DDE9022304B07047E5
:10021C002DE9F047089E0D4604468846002B4DD12B
:10022C008A42944668D9B2FA82F252B101FA02F3C8
:10023C00C2F1200120FA01F10CFA02FC41EA030898
:10024C0094404FEA1C45210CB8FBF5FE1FFA8CF7C5
:10025C0005FB1E8341EA03430EFB07F199420BD9C0
:10026C001CEB03030EF1FF3080F01E81994240F22B
:10027C001B81AEF1020E63445B1AA4B2B3FBF5F022
:10028C0005FB103344EA034400FB07F7A7420AD9E5
:10029C001CEB040400F1FF3380F00881A74240F20C
:1002AC00058164440238E41B40EA0E4000211EB173
:1002BC00D4400023C6E90043BDE8F0878B4208D93F
:1002CC00002E00F0EE800021C6E900050846BDE8CE
:1002DC00F087B3FA83F100294AD1AB4202D38242B0
:1002EC0000F2F980841A65EB030301209846002E76
:1002FC00E2D0C6E90048DFE702B9FFDEB2FA82F2CB
:10030C00002A40F09180A1EB0C054FEA1C471FFA24
:10031C008CFE0121B5FBF7F307FB1350250C45EAC6
:10032C0000450EFB03F0A84208D91CEB050503F1B0
:10033C00FF3802D2A84200F2CB8043462D1AA4B259
:10034C00B5FBF7F007FB105544EA05440EFB00FE25
:10035C00A64508D91CEB040400F1FF3502D2A645D2
:10036C0000F2BB802846A4EB0E0440EA03409EE753
:10037C00C1F120078B4022FA07FC4CEA030C20FA4F
:10038C0007F405FA01F31C43FD404FEA1C4900FA3F
:10039C0001F3B5FBF9F8200C1FFA8CFE09FB18557C
:1003AC0040EA054508FB0EF0A84202FA01F20BD90F
:1003BC001CEB050508F1FF3A80F08880A84240F25A
:1003CC008580A8F1020865442D1AA4B2B5FBF9F09A
:1003DC0009FB105544EA054500FB0EFEAE4508D955
:1003EC001CEB050500F1FF346CD2AE456AD902381E
:1003FC00654440EA0840A0FB0294A5EB0E05A5421B
:10040C00C846A64656D353D05EB1B3EB080265EB93
:10041C000E0505FA07F722FA01F3CD401F43C6E992
:10042C0000750021BDE8F087C2F1200320FA03F12A
:10043C000CFA02FC25FA03F395400D434FEA1C47D6
:10044C001FFA8CFEB3FBF7F107FB11302B0C43EAC0
:10045C00004301FB0EF0984204FA02F408D91CEB9D
:10046C00030301F1FF382FD298422DD9023963448E
:10047C001B1AADB2B3FBF7F007FB103345EA03458B
:10048C0000FB0EF3AB4208D91CEB050500F1FF385D
:10049C0016D2AB4214D902386544ED1A40EA014138
:1004AC0038E73146304607E78646E5E61846FAE671
:1004BC004B45A9D2B9EB020864EB0C0E0138A3E74B
:1004CC004046EAE7204694E74146D1E7D0467BE731
:1004DC00023B654432E7084609E76444023842E7C8
:1004EC0003685A004CBF43F0004323F00043184408
:1004FC00704700BF2DE9F84329B34F1E044615463B
:10050C003E464FF0000808EB060101EBD171491093
:10051C0004EBC1094846FFF7E3FF0346C800083067
:10052C008F42204409D0AB4209D8FFF7D9FF0138DC
:10053C00A8420AD201F10108E5E7AB4205D988458A
:10054C0001D04E1EDFE74FF000094846BDE8F883A6
:10055C00012807D0022807D0044B00280CBF1846EE
:10056C00002070470248704702487047350C00085D
:10057C00390C00083D0C000830B5234B83B0044601
:10058C008D1E3BB301A92846AFF30080E8B1019959
:10059C002A46FFF7AFFF0146B8B1FFF7A1FF4B6842
:1005AC00A064012B2CD0002B01F1040024DBFFF7FD
:1005BC0097FF0023C4E913030368002B11DBFFF73B
:1005CC008FFF2061002003B030BD00230920236180
:1005DC0003B030BD0D4B0E49C91AC9101846019114
:1005EC00D6E7C3F30360FFF7B3FF0028206114BF05
:1005FC000020092003B030BD0123C4E91303DBE75D
:10060C00002323610520DEE7000000004C350008C4
:10061C00143600080368DA0710B5044606D49B07A5
:10062C0000F1480009D500F05BFC2368590709D597
:10063C001A070ED5DB0613D510BD00F049FC236854
:10064C005907F5D404F1D00000F052FC23681A07C6
:10065C00F0D404F5A87000F053FC2368DB06EBD44F
:10066C0004F5E870BDE8104000F08EBC092070471E
:10067C000346006800B11844704700BF704700BFC4
:10068C0070B504460E46316C2046FFF775FF0546E3
:10069C0088B9326C62612369324621460120984741
:1006AC000828F0D0072806D12846316CFFF7E6FF62
:1006BC00301D00F001FC02F02BFE00BF2DE9F047CD
:1006CC000D1DD0F80C80D0F81890074614460FCDAD
:1006DC00ADF5727D0DF10C0CACE80F000FCDACE854
:1006EC000F000FCDACE80F0095E80F0002AE4FF0F5
:1006FC00000E8CE80F00C6F800E020E0336C7B6144
:10070C004FF4F07231467AA800F056FE3B697AAA93
:10071C00394650469847889B73642146CDE9006959
:10072C0005463B463A460120C0470446E0B94FF423
:10073C00F0727AA9304600F03FFE082D1AD1316CC8
:10074C003846FFF719FF09345FFA84FA054600288A
:10075C00D4D0B36B73643A46CDE900693B464AF09A
:10076C0010010120C04700B1092528460DF5727D06
:10077C00BDE8F087072DF7D12046316CFFF77EFFDF
:10078C0003A800F099FB00BF406C7047F0B5CB6B31
:10079C000B6401F1040C0E460546BCE80F00F9B0E1
:1007AC0001AC0FC4BCE80F000FC4BCE80F000FC4B1
:1007BC009CE80F004FF0FF3784E80F00009706E02D
:1007CC002B696A46294698470828044608D110998F
:1007DC002846FFF7D1FE0028F2D0092079B0F0BDF1
:1007EC006846FFF717FF062CF7D131462846FFF76E
:1007FC0047FF00BFC160D96B8261196400221946A2
:10080C005CE700BF70B5C66843690B64AEB9036999
:10081C000A4604460D46014602209847072805D093
:10082C0008280FD129462046FFF72AFF3046296CAD
:10083C00FFF724FF281D00F03FFB0122FFF73EFFCE
:10084C0002F066FD02F064FDC2681AB1CA6B0A645C
:10085C00002233E79AE700BF704700BF8368014668
:10086C000BB1012018477047012912D009D873B970
:10087C000F2A0CD800EB820218465368009A1360BA
:10088C0070470339012994BF0120022070470220D0
:10089C0070470846704700BF00B585B00A46002374
:1008AC0003A900911946FFF7DFFF039805B05DF827
:1008BC0004FB00BF012912D009D873B90F2A0CD838
:1008CC0000EB8200009A12684260184670470339A8
:1008DC00012994BF0120022070470220704708466E
:1008EC00704700BF10B584B0002303AC0392009492
:1008FC000A461946FFF7DEFF04B010BD70B5D36B86
:10090C00136402F1040C05460C46BCE80F00ADF56F
:10091C000E7D0DF15C0EAEE80F00BCE80F00AEE8EA
:10092C000F00BCE80F00AEE80F009CE80F004FF082
:10093C00FF368EE80F00169610E0FFF7D3FF214626
:10094C0016A8A847034616AA6946082083B9049B33
:10095C009847052806460CD0092809D026996846E0
:10096C00FFF70AFE03466A460C2116A8002BE4D0BA
:10097C00092616A8FFF74EFE30460DF50E7D70BD0C
:10098C002DE9F04FCC6C89B01E4654F8043B06940C
:10099C000D46174600F00308002E79D01A0C1B04E4
:1009AC0005938DF81D200223D2B204EB82048DF83E
:1009BC001C302B6DB8F1020F08BFAC6B13F00103A8
:1009CC000CD005A9384600F079FB18B9082009B0FD
:1009DC00BDE8F08F092009B0BDE8F08FD4F800A075
:1009EC00BAF1000FEDD0019300F008030293022E30
:1009FC004AD0B4F800A0B4F802900434AB6C29F0DF
:100A0C00010B0F2138469B44FFF746FF834539D82D
:100A1C002AF001039B44834594BF002001204FEA38
:100A2C00490303F002030AF0010A43EA0A03012B0B
:100A3C0049D0022B32D0002BCCD1B8F1000F02D010
:100A4C00002840F0CD800434D4F800A0BAF1000F97
:100A5C00CDD105A9384600F031FB0028BAD1019B55
:100A6C00002BB3D00F213846FFF716FF0E2102469C
:100A7C003846FFF737FF38466A4A0F21FFF732FF37
:100A8C000720A8E70020CAE7D4F804900834B5E79B
:100A9C001B0205930323ADF81C308AE7236823F06F
:100AAC00004BB8F1000F45D128B1029A002A5CD056
:100ABC00BBF1000F74D0002B00DA04340BF1010BE6
:100ACC0004EB8B04C0E7B8F1000F19D1B0B1636827
:100ADC002268991C4FEAD2723FF47CAF05F15801A1
:100AEC000133049100F09080201DFFF7C1FD04AB91
:100AFC0001462846AFF3008000285BD10834A3E7F9
:100B0C000D213846D5F82090FFF7C6FE8145F5D16A
:100B1C00AB6A9C42F2D12046FFF7E2FC0F21024661
:100B2C003846FFF7DFFE38462A460021FFF7DAFE8B
:100B3C00072050E70D213846D5F82090FFF7ACFE82
:100B4C00814501D02368B6E7AB6A9C42FAD10423F5
:100B5C000022C5E90B23E318C5F828B06B632368A2
:100B6C00002B59DB01230193A8E705F15803CDF8BD
:100B7C000C8004F1040AB04691461E460EE0504625
:100B8C000496FFF775FD0022014604AB284609F1D7
:100B9C0001090AF1040AAFF30080E0B9D945EED19E
:100BAC000D213846FFF778FE049BAC62C5E90803BB
:100BBC00062010E781460D213846FFF76DFEB9F18E
:100BCC00020F286225D12B46049A43F82C2F6B6216
:100BDC00AC620620FFE646462368DDF80C806AE727
:100BEC002046FFF77DFC04340246AC6328461446CD
:100BFC00AFF3008000283FF4EDAE384622460F21BB
:100C0C00FFF770FE0720E6E60D213846FFF744FE9D
:100C1C002862049B6B62DBE70BF1010004EB8000A4
:100C2C007AE700BF000000000023A9E60123A7E635
:100C3C000223A5E62DE9F0430646C3B015461C4633
:100C4C00042900F2BF80DFE801F09E57BD2D0300A0
:100C5C00002C40F0B780102A00F2B4800368D8064C
:100C6C0000F1F98020AF384600F098F9B46B3946A2
:100C7C0000234FF0010C0CFA03F22A42204603F138
:100C8C00010303D050F8042B0A600446042B01F135
:100C9C000401F0D13846B46300F076F9002043B07B
:100CAC00BDE8F083032C40F08D8094B204EB12432A
:100CBC00102B4FEA124500F2858003681F0700F1E4
:100CCC00D28020AF384600F03DF9B26B07EBC5017E
:100CDC0054B10B46D01A01EBC401E4001D5843F883
:100CEC00045B8B42FAD122443846B26300F008F917
:100CFC00002043B0BDE8F083012C4FEA124895B2B6
:100D0C005CD0052C5ED108EB0509B9F1200F59D840
:100D1C00B8F10F0F79D9A946002D40F08A80B36B3A
:100D2C006DB320AF4FF0000907EBC807043F03EB8E
:100D3C00C50553F8041B47F8041FAB42F9D1B9F1B0
:100D4C00000F0FD06F464146102938BF102107EB1A
:100D5C00C101843903EBC90553F8040B41F8040FA6
:100D6C00AB42F9D1012C00F08680B8F10F0FB563BE
:100D7C0047D9B9F1000F02D0684600F0B9F800204D
:100D8C0043B0BDE8F083ECB9806B23461FFA82FCBC
:100D9C000124371D04FA03F212EA0C0F014604D0A9
:100DAC0051F8042B47F8232008460133102BF1D1BE
:100DBC0015F40055E3D1B063284604E008EB0503B5
:100DCC00102B03D9022043B0BDE8F083B8F10F0F0C
:100DDC00F8D83368DA0706D5304623F0030340F819
:100DEC00483B00F079F820AF384600F075F8B36B4B
:100DFC00002D97D11D460435B563384600F068F8D0
:100E0C00BDE720A800F06CF8B3E7B9F1100F40D99A
:100E1C00A9F110093368D90708D523F0010330462E
:100E2C0043F0020340F8483B00F05EF8B9F1000FC4
:100E3C0032D033685A0720D4B8F10F0F25D96F463A
:100E4C003846C8F1100500F057F8002DB36B7FF74A
:100E5C007AAF20AF68E723F01003336006F5E87033
:100E6C0000F09CF8FEE623F00803036000F5A87080
:100E7C0000F068F825E720AFBDE7304623F0040307
:100E8C0040F8D03B00F038F8D6E720A800F02CF85A
:100E9C00D5E74FF00009BDE7B8F10F0F3FF63FAFB4
:100EAC0020AF384600F020F8B36B002D7FF43AAF3A
:100EBC00384600F015F862E700F1340191E838008B
:100ECC009C46A6464CF8045D90E8FF0FE54600BD35
:100EDC0090EC210B704700BF80EC210B704700BFDA
:100EEC0090EC200B704700BF80EC200B704700BFCC
:100EFC00D0EC200B704700BFC0EC200B704700BF3C
:100F0C00F0EC0201F0EC0211F0EC0221F0EC0231F9
:100F1C00F0EC0241F0EC0251F0EC0261F0EC0271E9
:100F2C00F0EC0281F0EC0291F0EC02A1F0EC02B1D9
:100F3C00F0EC02C1F0EC02D1F0EC02E1F0EC02F1C9
:100F4C00704700BFE0EC0201E0EC0211E0EC022182
:100F5C00E0EC0231E0EC0241E0EC0251E0EC026129
:100F6C00E0EC0271E0EC0281E0EC0291E0EC02A119
:100F7C00E0EC02B1E0EC02C1E0EC02D1E0EC02E109
:100F8C00E0EC02F1704700BFB0FC0181B0FC0191B4
:100F9C00B0FC01A1B0FC01B1704700BFA0FC018105
:100FAC00A0FC0191A0FC01A1A0FC01B1704700BF05
:100FBC00EC4600B52DE900502DE9FF1F4FF0000362
:100FCC002DE90C0001A9FFF7E1FBDDF840E012B0C0
:100FDC00704700BFEC4600B52DE900502DE9FF1F0E
:100FEC004FF000032DE90C0001A9FFF70BFCDDF815
:100FFC0040E012B0704700BFEC4600B52DE9005040
:10100C002DE9FF1F4FF000032DE90C0001A9FFF79C
:10101C001BFCDDF840E012B0704700BFEC4600B599
:10102C002DE900502DE9FF1F4FF000032DE90C00B6
:10103C0001ABFFF7DFFBDDF840E012B0704700BFFB
:10104C00EC4600B52DE900502DE9FF1F4FF00003D1
:10105C002DE90C0001AAFFF751FCDDF840E012B0BD
:10106C00704700BF027A03467AB9427AA2B141684E
:10107C00013A10B44272086803220C1D1A72020263
:10108C005C60000E10BC1A6070470068013A1A725E
:10109C0002021A60000E7047B020704700B585B090
:1010AC00002303AA009219460C22FFF7DDFB0398DC
:1010BC0005B05DF804FB00BFF0E700BF2DE9F0437D
:1010CC00054685B00E464FF000083046FFF7CAFFC4
:1010DC00B028044600F0BA80070620D500F0F003D3
:1010EC00802B4DD0902B36D0A02B60D0B02B74D051
:1010FC00C02B00F08B8000F0F803D02B0BD100F04C
:10110C0007020132052342F4002201212846FFF791
:10111C0091FD0028D9D0092005B0BDE8F0838300EB
:10112C00DBB21F1D0DF10C0900231946CDF8009000
:10113C000D222846FFF798FB039BCDF80090600624
:10114C004CBFDF1BFF1800230D22194628460397BE
:10115C00FFF7B0FBB9E700F00D030D2BDBD003AFAD
:10116C00002300F00F02194600972846FFF77CFB7E
:10117C00002300970D2219462846FFF79BFBA4E796
:10118C003046FFF76FFF24022043B0F5004FC2D06A
:10119C0004010023A2B219462846FFF74BFD002894
:1011AC00B9D114F4004F18BF4FF001088DE7C243BA
:1011BC0002F007034FF47F621A41010702F47F62C9
:1011CC004FF0000348BF42F4804219462846FFF70F
:1011DC0031FD00283FF479AF9DE7B1283BD0B22810
:1011EC0000F09380B32841D000F0FC03B42B92D0D4
:1011FC0000F007020132012342F40022194628466E
:10120C00FFF718FD00283FF460AF84E7C6284AD0EA
:10121C00C72854D000F0F803C02B63D0C82868D07E
:10122C00C9287FF478AF3046FFF71CFF020300F0AB
:10123C000F0002F4702201300243012105232846DD
:10124C00FFF7F8FC00283FF440AF64E7B8F1000F5B
:10125C0018D0002060E73046FFF704FF0246002854
:10126C003FF459AF10F0F003C8D054E73046FFF705
:10127C00F9FE020300F00F03013302F470221A434B
:10128C000123BBE703AC43460E224146009428469B
:10129C00FFF7EAFA009443460F2241462846FFF72F
:1012AC0009FB404638E73046FFF7DCFE020300F04E
:1012BC000F03013302F470221A4303239EE73046D6
:1012CC00FFF7D0FE024600283FF425AF10F0F003E4
:1012DC007FF421AF04212846FFF7ACFC00283FF433
:1012EC00F4AE18E700F00F020132032342F420227F
:1012FC0084E73046FFF7B6FE00F0F00200F00F0373
:10130C001032013343EA023297E700230DF10C0946
:10131C000D221946CDF800902846FFF7A5FA304665
:10132C00FFF7A0FE02064FF002040CD5039B00F061
:10133C007F00A040184403903046FFF793FE03064D
:10134C0004F10704F2D4039BCDF8009000F07F0267
:10135C00A24003F501731A440023039219460D228F
:10136C002846FFF7A7FAB0E610B5C26C536884B0F4
:10137C004FF0030C08321C0208461B0E01A9019405
:10138C0002928DF80CC08DF80D30FFF797FE04B06B
:10139C0010BD00BF08B5FFF78FFE806C08BD00BF05
:1013AC0008B5FFF789FEC06CC379023300EB8300EC
:1013BC0008BD00BF704700BF844641EA000313F02C
:1013CC0003036DD1403A41D351F8043B40F8043B40
:1013DC0051F8043B40F8043B51F8043B40F8043B03
:1013EC0051F8043B40F8043B51F8043B40F8043BF3
:1013FC0051F8043B40F8043B51F8043B40F8043BE3
:10140C0051F8043B40F8043B51F8043B40F8043BD2
:10141C0051F8043B40F8043B51F8043B40F8043BC2
:10142C0051F8043B40F8043B51F8043B40F8043BB2
:10143C0051F8043B40F8043B51F8043B40F8043BA2
:10144C0051F8043B40F8043B403ABDD2303211D342
:10145C0051F8043B40F8043B51F8043B40F8043B82
:10146C0051F8043B40F8043B51F8043B40F8043B72
:10147C00103AEDD20C3205D351F8043B40F8043B42
:10148C00043AF9D2043208D0D2071CBF11F8013B40
:10149C0000F8013B01D30B8803806046704700BF06
:1014AC00082A13D38B078DD010F003038AD0C3F115
:1014BC000403D21ADB071CBF11F8013B00F8013BF7
:1014CC0080D331F8023B20F8023B7BE7043AD9D3B6
:1014DC00013A11F8013B00F8013BF9D20B7803708B
:1014EC004B7843708B78837060467047FEE7FEE75D
:1014FC00FEE7FEE7FEE770477047704708B500F05F
:10150C007DF808BD0120704708B501F009FF1623CE
:10151C0003604FF0FF3008BD08B54FF0FF31FFF707
:10152C00F3FFFEE770470000DFF834D00D480E499A
:10153C000E4A002302E0D458C4500433C4188C4221
:10154C00F9D30B4A0B4C002301E013600432A24286
:10155C00FBD3FFF7E7FF01F0E9FE01F0ABFE7047AC
:10156C0000000320000000203C040020203600086E
:10157C003C040020B8060020FEE7000010B504462D
:10158C000E4B18784FF47A73B3FBF0F30C4A1068D7
:10159C00B0FBF3F000F09CF868B90F2C01D90120D6
:1015AC000AE0002221464FF0FF3000F04BF8054BCB
:1015BC001C60002000E0012010BD00BF04000020D2
:1015CC00000000200800002008B50B4B1A6842F4FC
:1015DC0000721A601A6842F480621A601A6842F447
:1015EC0080721A60032000F01BF80F20FFF7C6FF73
:1015FC0001F02CFE002008BD003C0240034A11689B
:10160C00034B1B780B441360704700BF5804002039
:10161C0004000020014B1868704700BF58040020DC
:10162C00074AD36823F4E0631B041B0C000200F48C
:10163C00E060034343F0BF6343F40033D36070476F
:10164C0000ED00E000B5194BDB68C3F30223C3F1D6
:10165C00070CBCF1040F28BF4FF0040C03F1040E6F
:10166C00BEF1060F18D9033B4FF0FF3E0EFA0CFCEF
:10167C0021EA0C0199400EFA03F322EA0303194301
:10168C0000280BDB0901C9B200F1604000F5614094
:10169C0080F800135DF804FB0023E5E700F00F0071
:1016AC000901C9B2024B1954F4E700BF00ED00E088
:1016BC0014ED00E0002807DB00F01F0240090123B5
:1016CC009340024A42F82030704700BF00E100E02E
:1016DC000138B0F1807F0BD24FF0E0235861054AFE
:1016EC00F02182F823100020986107221A617047BC
:1016FC000120704700ED00E0042806D04FF0E022F6
:10170C00136923F00403136170474FF0E02213694F
:10171C0043F004031361704770B50446866DFFF700
:10172C0079FF94F83530DBB2022B06D08023636549
:10173C00002384F83430012070BD054622681368FC
:10174C0023F0160313602268536923F0800353615E
:10175C00236CE3B12268136823F00803136022683A
:10176C00136823F00103136023681B6813F0010F47
:10177C0011D0FFF74FFF431B052BF5D920236365D1
:10178C00032084F83500002384F83430D4E7A36CAC
:10179C00002BDFD1E3E7E26D3F239340B3600123DD
:1017AC0084F83530002084F83400C5E790F83530E3
:1017BC00DBB2022B03D08023436501207047052345
:1017CC0080F835300268136823F0010313600020A1
:1017DC007047000000230F2B00F2F18070B582B02F
:1017EC0061E085685E000324B44025EA0405CC68FA
:1017FC00B4402C438460456825EA02054C68C4F368
:10180C0000129A402A4342605BE0DC08083450F82E
:10181C00246003F0070295000F22AA4026EA020E6C
:10182C000A69AA4042EA0E0240F824205DE009222F
:10183C0000E0002202FA0EF22A430234604D45F811
:10184C002420604A94686FEA0C0224EA0C054E6866
:10185C0016F4801F01D04CEA04055A4CA560E468CC
:10186C0002EA04054E6816F4001F01D04CEA040588
:10187C00544CE560646802EA04054E6816F4003FB7
:10188C0001D04CEA04054F4C6560246822404D6839
:10189C0015F4803F01D04CEA04024A4C226001331B
:1018AC000F2B00F28A8001229A400C6804EA020C89
:1018BC0032EA0404F3D14C6804F00304013C012C1B
:1018CC008FD94A6802F00302032A09D0C4685D006C
:1018DC000322AA4024EA02048A68AA402243C26076
:1018EC004A6802F00302022A8FD004684FEA430EC2
:1018FC00032202FA0EF224EA02044A6802F00302FE
:10190C0002FA0EF2224302604A6812F4403FC6D03B
:10191C00002201922C4A546C44F480445464526C5E
:10192C0002F480420192019A9C08A51C244A52F8A8
:10193C00255003F003024FEA820E0F2202FA0EF238
:10194C0025EA0205214A90423FF473AF02F580620A
:10195C00904222D002F58062904220D002F5806243
:10196C0090421ED002F5806290421CD002F580623B
:10197C0090421AD002F58062904218D002F5806233
:10198C00904216D002F58062904214D002F580622B
:10199C0090423FF44CAF0A224CE701224AE7022264
:1019AC0048E7032246E7042244E7052242E70622E1
:1019BC0040E707223EE708223CE702B070BD7047C3
:1019CC0000380140003C0140003802400000024059
:1019DC000369194201D001207047002070470AB1F9
:1019EC0081617047090481617047000008B5054B9F
:1019FC005B69034200D108BD024B586101F0CCF980
:101A0C00F9E700BF003C014010B582B00023019300
:101A1C00194B1A6C42F080521A641B6C03F0805301
:101A2C000193019B154B01221A64FFF7F3FD044649
:101A3C00134B5B6813F4803F08D1FFF7EBFD001BE1
:101A4C00B0F57A7FF4D9032002B010BD0B4B012204
:101A5C005A64FFF7DFFD0446094B5B6813F4003F43
:101A6C0007D1FFF7D7FD001BB0F57A7FF4D903201F
:101A7C00EAE70020E8E700BF0038024000000E4211
:101A8C0000700040002800F0E08170B582B0044680
:101A9C00036813F0010F3BD09F4B9B6803F00C03C2
:101AAC00042B2CD09C4B9B6803F00C03082B21D0EF
:101ABC006368B3F5803F4FD0B3F5A02F52D0964B4F
:101ACC001A6822F480321A601A6822F480221A6092
:101ADC006368002B50D0FFF79DFD05468E4B1B68AD
:101AEC0013F4003F14D1FFF795FD401B6428F5D982
:101AFC000320B1E1884B5B6813F4800FD8D0864B80
:101B0C001B6813F4003F03D06368002B00F09F8127
:101B1C00236813F0020F54D07F4B9B6813F00C0F0B
:101B2C003ED07D4B9B6803F00C03082B33D0E3684D
:101B3C00002B68D0794B01221A60FFF76BFD05462C
:101B4C00754B1B6813F0020F54D1FFF763FD401B5C
:101B5C000228F5D903207FE16F4A136843F48033E0
:101B6C001360B5E76C4B1A6842F480221A601A684D
:101B7C0042F480321A60ABE7FFF74CFD0546664B2A
:101B8C001B6813F4003FC3D0FFF744FD401B6428CF
:101B9C00F5D9032060E1604B5B6813F4800FC6D16C
:101BAC005D4B1B6813F0020F03D0E368012B40F070
:101BBC005081594A136823F0F803216943EAC103A1
:101BCC001360236813F0080F42D063696BB3534B57
:101BDC000122C3F8802EFFF71DFD05464E4B5B6FAF
:101BEC0013F0020F34D1FFF715FD401B0228F5D975
:101BFC00032031E1484A136823F0F803216943EAD2
:101C0C00C1031360DDE7454B00221A60FFF702FDAC
:101C1C000546414B1B6813F0020FD2D0FFF7FAFCBC
:101C2C00401B0228F5D9032016E13C4B0022C3F8D7
:101C3C00802EFFF7EFFC0546374B5B6F13F0020F5E
:101C4C0006D0FFF7E7FC401B0228F5D9032003E17F
:101C5C00236813F0040F77D02F4B1B6C13F0805FAD
:101C6C0033D1002301932C4B1A6C42F080521A642E
:101C7C001B6C03F080530193019B0125284B1B68BF
:101C8C0013F4807F23D0A368012B34D0052B38D0DC
:101C9C00214B1A6F22F001021A671A6F22F004020C
:101CAC001A67A368002B3DD0FFF7B4FC06461A4B0D
:101CBC001B6F13F0020F46D1FFF7ACFC801B41F2F7
:101CCC0088339842F3D90320C6E00025D6E7144A9E
:101CDC00136843F480731360FFF79CFC0646104BAB
:101CEC001B6813F4807FCED1FFF794FC801B022875
:101CFC00F5D90320B0E0084A136F43F001031367D2
:101D0C00CFE7054B1A6F42F004021A671A6F42F0C4
:101D1C0001021A67C5E700BF0038024000004742C5
:101D2C0000700040FFF776FC0646524B1B6F13F019
:101D3C00020F08D0FFF76EFC801B41F288339842EB
:101D4C00F3D9032088E0EDB9A369002B00F0838060
:101D5C00484A926802F00C02082A51D0022B17D084
:101D6C00454B00221A66FFF755FC0446414B1B6895
:101D7C0013F0007F42D0FFF74DFC001B0228F5D971
:101D8C00032069E03B4A136C23F080531364DBE7B8
:101D9C00394B00221A66FFF73DFC0546354B1B6894
:101DAC0013F0007F06D0FFF735FC401B0228F5D955
:101DBC00032051E0E369226A1343626A43EA821307
:101DCC00A26A5208013A43EA0243E26A43EA026316
:101DDC00284A5360284B01221A66FFF71BFC044665
:101DEC00244B1B6813F0007F06D1FFF713FC001B7C
:101DFC000228F5D903202FE000202DE000202BE055
:101E0C00012B2BD01B4B5B6803F48001E2699142E0
:101E1C0026D103F03F02216A8A4223D1616A47F638
:101E2C00C0721A40B2EB811F1ED103F44031A26A7A
:101E3C005208013AB1EB024F18D103F07063E26A19
:101E4C00B3EB026F14D1002006E001207047012093
:101E5C0002E0012000E0002002B070BD0120FBE791
:101E6C000120F9E70120F7E70120F5E70120F3E76E
:101E7C000120F1E7003802400000474208B5254B2D
:101E8C009B6803F00C03042B3FD0082B3FD1214B54
:101E9C005A6802F03F025B6813F4800F12D01D4B9E
:101EAC005968C1F388111C480023A1FB0001FEF7FF
:101EBC0097F9184B5B68C3F3014301335B00B0FB2C
:101ECC00F3F025E0134B5968C1F3881C4FEA4C1111
:101EDC00B1EB0C006EEB0E0E4FEA8E1343EA9063DF
:101EEC008101091A63EB0E03DB0043EA5173C9004D
:101EFC0011EB0C0C43F10003990200234FEA8C20E8
:101F0C0041EA9C51FEF76CF9D3E7034800E0034823
:101F1C0008BD00BF0038024040787D010024F40069
:101F2C00002800F09B8070B50D4604464F4B1B6893
:101F3C0003F00F038B4208D2CBB24C4A13701368D8
:101F4C0003F00F038B4240F08B80236813F0020FD9
:101F5C0017D013F0040F04D0454A936843F4E053B0
:101F6C009360236813F0080F04D0414A936843F43C
:101F7C00604393603E4A936823F0F003A1680B43DF
:101F8C009360236813F0010F32D06368012B21D0CA
:101F9C009A1E012A25D9364A126812F0020F61D016
:101FAC0033498A6822F0030213438B60FFF732FB3C
:101FBC0006462F4B9B6803F00C036268B3EB820F51
:101FCC0016D0FFF727FB801B41F288339842F0D9DB
:101FDC00032042E0264A126812F4003FE0D10120AF
:101FEC003BE0234A126812F0007FD9D1012034E083
:101FFC001E4B1B6803F00F03AB4207D9EAB21B4B15
:10200C001A701B6803F00F03AB422DD1236813F039
:10201C00040F06D0164A936823F4E053E1680B438F
:10202C009360236813F0080F07D0114A936823F4C8
:10203C006043216943EAC1039360FFF71FFF0C4B18
:10204C009B68C3F303130B4AD35CD8400A4B18604C
:10205C000A4B1868FFF792FA002070BD01207047F8
:10206C000120FAE70120F8E70120F6E7003C0240E6
:10207C00003802401835000800000020080000203D
:10208C00014B1868704700BF0000002008B5FFF72F
:10209C00F7FF044B9B68C3F38223034AD35CD840FD
:1020AC0008BD00BF003802402835000808B5FFF70E
:1020BC00E7FF044B9B68C3F34233034AD35CD8401D
:1020CC0008BD00BF003802402835000830B4036A50
:1020DC0023F001030362036A4268846924F07304E9
:1020EC000D682C4323F0020C8B6843EA0C03104D53
:1020FC00A84203D005F58065A84205D123F008035A
:10210C00CD682B4323F00403094DA84203D005F5F9
:10211C008065A84205D122F440724D692A438D692D
:10212C002A43426084614A684263036230BC704750
:10213C000000014030B4036A23F480730362036A25
:10214C004268C46924F0730C0C6844EA0C0523F44F
:10215C0000738C6843EA0423114CA04203D004F5AD
:10216C008064A04206D123F40063CC6843EA0423C4
:10217C0023F480630A4CA04203D004F58064A0428F
:10218C0007D122F440524C6942EA04128C6942EAAB
:10219C0004124260C5614A68C263036230BC704776
:1021AC000000014030B4036A23F480530362036AD5
:1021BC004468C26922F4E6420D6842EA052223F41F
:1021CC0000538D6843EA0533094DA84203D005F549
:1021DC008065A84204D124F480444D6944EA8514F6
:1021EC004460C2614A680264036230BC704700BF3D
:1021FC0000000140704770477047704710B50446A7
:10220C0003681A6912F0020F11D0DA6812F0020F8B
:10221C000DD06FF002021A610123037703689B69EA
:10222C0013F0030F70D0FFF7E6FF0023237723682A
:10223C001A6912F0040F12D0DA6812F0040F0ED0E3
:10224C006FF004021A610223237723689B6913F44D
:10225C00407F5FD02046FFF7CEFF00232377236813
:10226C001A6912F0080F12D0DA6812F0080F0ED0AB
:10227C006FF008021A61042323772368DB6913F0DB
:10228C00030F4ED02046FFF7B6FF002323772368B9
:10229C001A6912F0100F12D0DA6812F0100F0ED06B
:1022AC006FF010021A61082323772368DB6913F49B
:1022BC00407F3DD02046FFF79EFF00232377236805
:1022CC001A6912F0010F03D0DA6812F0010F36D13F
:1022DC0023681A6912F0800F03D0DA6812F0800FAD
:1022EC0034D123681A6912F0400F03D0DA6812F067
:1022FC00400F32D123681A6912F0200F03D0DA682C
:10230C0012F0200F30D110BDFFF774FF2046FFF7FD
:10231C0073FF8AE72046FFF76DFF2046FFF76CFF3F
:10232C009BE72046FFF766FF2046FFF765FFACE70B
:10233C002046FFF75FFF2046FFF75EFFBDE76FF01B
:10234C0001021A61204600F0F1FEC1E76FF0800235
:10235C001A61204600F0D9F9C3E76FF040021A6108
:10236C002046FFF74AFFC5E76FF020021A612046AE
:10237C0000F0CAF9C7E700000368304A904212D057
:10238C00B0F1804F0FD0A2F57C4290420BD002F5F9
:10239C008062904207D002F58062904203D002F531
:1023AC007842904203D123F070034A681343234AC6
:1023BC0090422AD0B0F1804F27D0A2F57C429042B7
:1023CC0023D002F5806290421FD002F580629042C9
:1023DC001BD002F57842904217D002F57052904211
:1023EC0013D002F5806290420FD002F580629042C9
:1023FC000BD0A2F59832904207D002F58062904241
:10240C0003D002F58062904203D123F44073CA6872
:10241C00134323F080034A69134303608B68C36240
:10242C000B688362054B984203D003F58063984296
:10243C0001D10B6903630123436170470000014024
:10244C0040B310B5044690F83D30F3B1022384F844
:10245C003D30214651F8040BFFF78EFF012384F821
:10246C00463084F83E3084F83F3084F8403084F8AD
:10247C00413084F8423084F8433084F8443084F896
:10248C00453084F83D30002010BD80F83C3000F021
:10249C00D9FDDBE70120704730B4036A23F0100349
:1024AC000362036A4468826922F4E6420D6842EAD8
:1024BC00052223F020038D6843EA0513114DA84231
:1024CC0003D005F58065A84206D123F08003CD68C2
:1024DC0043EA051323F040030A4DA84203D005F547
:1024EC008065A84207D124F440644D6944EA850410
:1024FC008D6944EA8504446082614A6882630362A0
:10250C0030BC70470000014038B590F83C30012BCE
:10251C0066D004460D46012380F83C300C2A5AD86C
:10252C00DFE802F0075959591B5959593059595973
:10253C0044000068FFF7CAFD2268936943F0080362
:10254C0093612268936923F0040393612268936971
:10255C0029690B43936100203EE00068FFF79CFF64
:10256C002268936943F4006393612268936923F4AE
:10257C008063936122689369296943EA012393611B
:10258C00002029E00068FFF7D5FD2268D36943F0ED
:10259C000803D3612268D36923F00403D361226852
:1025AC00D36929690B43D361002015E00068FFF75C
:1025BC00F9FD2268D36943F40063D3612268D369BF
:1025CC0023F48063D3612268D369296943EA012328
:1025DC00D361002000E00120002384F83C3038BD9A
:1025EC000220FCE701F01F01012303FA01FC036A3E
:1025FC0023EA0C030362036A02FA01F10B43036240
:10260C007047000010B504460846002942D194F8E2
:10261C003E30DBB2013B18BF0123002B6ED10028EA
:10262C0051D1022384F83E30012201462068FFF785
:10263C00D9FF2368334A934203D002F58062934258
:10264C0003D15A6C42F400425A6423682D4A9342D7
:10265C0049D0B3F1804F46D0A2F57C42934242D090
:10266C0002F5806293423ED002F5806293423AD0EA
:10267C0002F57842934236D002F57052934232D032
:10268C00A2F5943293422ED01A6842F001021A60DD
:10269C00002032E0042908D008290DD094F84130EC
:1026AC00DBB2013B18BF0123B7E794F83F30DBB234
:1026BC00013B18BF0123B0E794F84030DBB2013B7B
:1026CC0018BF0123A9E7042805D0082807D0022346
:1026DC0084F84130A8E7022384F83F30A4E70223B2
:1026EC0084F84030A0E79A6802F00702062A07D067
:1026FC001A6842F001021A60002010BD0120FCE7AC
:10270C000020FAE70000014070477047026802F1B0
:10271C000C0353E8003F23F490730C3242E8003171
:10272C000029F3D1026802F1140353E8003F23F0AF
:10273C000103143242E800310029F3D1036B012B61
:10274C0005D0202380F83E300023036370470268D5
:10275C0002F10C0353E8003F23F010030C3242E863
:10276C0000310029F3D1ECE790F83D30DBB2212B9E
:10277C0001D0022070478368B3F5805F17D0036ADD
:10278C005A1C02621A7803685A60C38C9BB2013BD4
:10279C009BB2C3844BB90268D36823F08003D36027
:1027AC000268D36843F04003D3600020704703698C
:1027BC00002BE4D1036A1B880268C3F3080353603F
:1027CC00036A02330362E0E738B504460268136912
:1027DC0023F44053C1680B431361836802691343AC
:1027EC0042691343C2691A430168CB6823F4164348
:1027FC0023F00C031343CB600268536923F440733A
:10280C0081690B4353610368314A934206D002F548
:10281C008062934202D0FFF739FC01E0FFF746FCDF
:10282C00E369B3F5004F29D00021031849411B1867
:10283C0041F10001C90041EA5371DB0018186368CB
:10284C004FEA83024FEA937341F10001FDF7C8FC94
:10285C00204DA5FB00325109642303FB11031B011E
:10286C003233A5FB03235B0903F0F00202EB0112E8
:10287C0003F00F03216813448B6038BD002302184A
:10288C0043EB0301121841F10001C90041EA5271F6
:10289C00D200101841F10001626892185B41FDF7FB
:1028AC009FFC0C4DA5FB00325109642303FB110363
:1028BC00DB003233A5FB03235B095A0002F4F872E8
:1028CC0002EB011203F00703216813448B60D4E779
:1028DC00001001401F85EB51704758B310B50446EA
:1028EC0090F83D300BB3242384F83D302268D36834
:1028FC0023F40053D3602046FFF766FF2268136968
:10290C0023F4904313612268536923F02A03536123
:10291C002268D36843F40053D36000202064202342
:10292C0084F83D3084F83E3010BD80F83C30FFF721
:10293C00D3FFD8E701207047704708B50168CA6813
:10294C0022F04002CA60202280F83D20FFF7F4FFFD
:10295C00002008BD704708B5806B0023C385C38475
:10296C00FFF7F8FF08BD704790F83E30DBB2222B22
:10297C0067D18368B3F5805F4DD0826AB3F5805F11
:10298C0004D0002B54D10369002B51D103685B6830
:10299C001370836A01338362C38D9BB2013B9BB27C
:1029AC00C385002B4FD100B583B00268D36823F0E8
:1029BC002003D3600268D36823F48073D360026869
:1029CC00536923F001035361202380F83E30036BDD
:1029DC00012B33D100230363026802F10C0353E88B
:1029EC00003F23F010030C3242E800310029F3D1F0
:1029FC0003681A6812F0100F06D0002201921A68B0
:102A0C0001925B680193019B818DFFF7ACFF002065
:102A1C0003B05DF804FB0269002AAED1826A036838
:102A2C005B68C3F308031380836A02338362B3E7E2
:102A3C0003685B6803F07F031370AAE700F0A8FB40
:102A4C00E5E70220704700207047000030B583B0E6
:102A5C00044602681368D068516913F00F0505D15C
:102A6C0013F0200F02D010F0200F19D12DB111F05E
:102A7C00010119D110F4907F16D1216B01297DD061
:102A8C0013F0800F03D010F0800F40F0158113F07D
:102A9C00400F03D010F0400F40F0128103B030BD56
:102AAC002046FFF761FFF9E713F0010F06D010F491
:102ABC00807F03D0226C42F00102226413F0040FD9
:102ACC0004D019B1226C42F00202226413F0020FFE
:102ADC0004D019B1226C42F00402226413F0080FE6
:102AEC0007D010F0200F00D119B1226C42F008026F
:102AFC002264226C002AD1D013F0200F02D010F0E7
:102B0C00200F29D123685B6903F04003226C12F07B
:102B1C00080F00D163B32046FFF7F8FD23685B690B
:102B2C0013F0400F20D0226802F1140353E8003F49
:102B3C0023F04003143242E800310029F3D1A36B97
:102B4C0073B1614A1A65A06BFEF730FE0028A5D060
:102B5C00A06B036D9847A1E72046FFF705FFD1E76F
:102B6C002046FFF7F7FE99E72046FFF7F3FE95E7BF
:102B7C002046FFF7EFFE002323648FE713F0100FBE
:102B8C003FF47EAF10F0100F3FF47AAF00230193A7
:102B9C001368019353680193019B536913F0400F21
:102BAC0050D0A26B13685B689BB2002B3FF476AFDE
:102BBC00A18D99427FF672AFE385D369B3F5807F1F
:102BCC0037D0226802F10C0353E8003F23F48073E2
:102BDC000C3242E800310029F3D1226802F11403CF
:102BEC0053E8003F23F00103143242E8003100297E
:102BFC00F3D1226802F1140353E8003F23F04003A1
:102C0C00143242E800310029F3D1202384F83E30FD
:102C1C0000232363226802F10C0353E8003F23F0E6
:102C2C0010030C3242E800310029F3D1A06BFEF7FF
:102C3C0073FDA18DE38D9BB2C91A89B22046FFF7B3
:102C4C0092FE2BE7A18DE38D9BB2C91A89B2E38D5D
:102C5C009BB2002B3FF422AF00293FF41FAF226838
:102C6C0002F10C0353E8003F23F490730C3242E85A
:102C7C0000300028F3D1226802F1140353E8003F1E
:102C8C0023F00103143242E800300028F3D1202352
:102C9C0084F83E3000232363226802F10C0353E8CE
:102CAC00003F23F010030C3242E800300028F3D12F
:102CBC002046FFF758FEF1E62046FFF755FDEDE6FE
:102CCC002046FFF73AFEE9E66329000890F83D300C
:102CDC0090F83E001843704781628285C2850023BC
:102CEC000364222280F83E2080F83C30036923B133
:102CFC000268D36843F48073D3600268536943F06D
:102D0C00010353610268D36843F02003D3600020B1
:102D1C00704708B590F83E30DBB2202B0DD171B165
:102D2C007AB190F83C30012B0DD0012380F83C3067
:102D3C0000230363FFF7D0FF00E0022008BD012051
:102D4C00FCE70120FAE70220F8E7704708B50368B2
:102D5C005A6812F4007F03D09A6812F0010F00D168
:102D6C0008BD6FF001029A60FFF7EFFFF8E708B5B6
:102D7C000120FEF73BFE08BD08B50420FEF736FE29
:102D8C0008BD08B50820FEF731FE08BD08B54FF4A4
:102D9C000050FEF72BFE08BD10B50446642000F071
:102DAC008BF8082C39D011D8012C21D0042C33D11C
:102DBC0004212548FEF70CFE70BB244AD2F8803261
:102DCC00B3FA83F35B09C2F8803225E0B4F5005FF7
:102DDC0022D14FF400511E48FEF7FAFDE0B91B4A10
:102DEC00D2F88432B3FA83F35B09C2F8843213E06D
:102DFC0001211848FEF7ECFD70B1144AD2F8843268
:102E0C00B3FA83F35B09C2F88032D2F88032B3FA9A
:102E1C0083F35B09C2F8843210BD08210A48FEF71F
:102E2C00D7FD0028F8D1094AD2F88432B3FA83F3DB
:102E3C005B09C2F88432D2F88032B3FA83F35B09AF
:102E4C00C2F88032E8E700BF001C0240008040421C
:102E5C00000802400000024008B50248FFF776FF68
:102E6C0008BD00BF5C04002010B504460420FEF72A
:102E7C0043FC014B1C6010BD7004002010B44FF0DB
:102E8C00E02254690B4B1B6800FB03FC9369002187
:102E9C0004E0E01A02441144614509D21A464FF08D
:102EAC00E0239B699A42FAD0F3D9D21A1144F3E782
:102EBC0010BC70477004002038B50546002404E0AF
:102ECC004FF47A70FFF7DAFF0134A542F8D838BD19
:102EDC0070B588B0002400941D4B1A6B42F00102AF
:102EEC001A631A6B02F001020092009A01941A6B99
:102EFC0042F004021A631A6B02F004020192019A66
:102F0C0002941A6B42F080021A631B6B03F080036D
:102F1C000293029B04940223059303250695012634
:102F2C00039603A90B48FEF755FC049405960695E9
:102F3C004FF40053039303A90748FEF74BFC0C23F3
:102F4C0003930DEB03010548FEF744FC08B070BD7C
:102F5C00003802400000024000080240001C024001
:102F6C0030B587B000230093104B1A6B42F002026D
:102F7C001A631B6B03F002030093009B0124029461
:102F8C000323019303940493094D01A92846FEF7EA
:102F9C0021FC224621462846FEF721FD224602212D
:102FAC002846FEF71CFD07B030BD00BF00380240BC
:102FBC000004024038B50D460D4C0E4B2360002327
:102FCC00A360E160236160602046FFF739FA0A498B
:102FDC0060230B606D084D6002238B600C22204631
:102FEC00FFF792FA0C212046FFF70CFB38BD00BF0F
:102FFC00900400200004004074040020014B18646D
:10300C00704700BF0004004038B540F2F31159205E
:10301C00FFF7D0FF0024012507E0013CA4B20BE030
:10302C0004B901252046FFF7E9FF0A20FFF744FF0A
:10303C00002DF2D00134A4B2B4F5967FF0D900255E
:10304C00EEE7000000B589B000210191114B1A6C1C
:10305C0042F002021A641A6C02F002020192019A06
:10306C0002911A6B42F002021A631B6B03F002030B
:10307C000293029B022303930493012205920322E1
:10308C000692079303A90448FEF7A4FB09B05DF868
:10309C0004FB00BF003802400004024070B594B03D
:1030AC00002401941B4D2E6C46F080562E642D6C22
:1030BC0005F080550195019D0294174D2E6846F43C
:1030CC0040462E602D6805F440450295029D012571
:1030DC0008954FF48035099502250E954FF480061E
:1030EC000F96109111901292139308A8FEF7CAFC38
:1030FC00FEF78AFC0F230393049505944FF4A05319
:10310C0006934FF480530793052103A8FEF708FF9D
:10311C0014B070BD003802400070004008B5024881
:10312C00FFF76CF808BD00BF90040020064B8342EB
:10313C0000D07047054AD2F88032B3FA83F35B09AA
:10314C00C2F88032F5E700BF9004002000804042B6
:10315C0010B50D48FFF77AFC00240B48FFF7B6FDBD
:10316C00202805D00134B4F5003FF6D3002400E04C
:10317C000024C82205490448FFF7CBFD18B10134DF
:10318C00B4F5003FF5D310BD6C060020A40500205B
:10319C000268194B9A4200D07047184A1388B2F94A
:1031AC000020002AF8DB13F4804F0ED0144A12785A
:1031BC000A2A03D0114B00221A8070476FEA43434E
:1031CC006FEA53430D4A138070470D4A12780D2A4B
:1031DC000DD0C3F30D010B48425401339BB2074A87
:1031EC001380C72BD8D9134600221A80D4E743F496
:1031FC007A63024A1380704700440040A005002007
:10320C00A4050020D804002008B50848084B03602A
:10321C004FF4E133436000238360C36083610C226D
:10322C0042610361FFF759FB08BD00BF6C0600202B
:10323C000044004008B5C82202490348FFF769FD65
:10324C0008BD00BFA40500206C06002010B588B096
:10325C0000210191154B1A6B42F001021A631A6B93
:10326C0002F001020192019A02911A6C42F40032AE
:10327C001A641B6C03F400330293029B0223049325
:10328C000C2303930324069401230593072307932C
:10329C0003A90748FEF79EFA224621462620FEF790
:1032AC00D1F92620FEF706FA08B010BD003802400E
:1032BC000000024010B586B0FEF786F90823022202
:1032CC0019214FF4B470FFF7E9FEB420FFF7CCFDE1
:1032DC00FFF746FEFFF7FCFD0C4B0DF1040C0FCB7A
:1032EC00ACE807002CF8023B1B0C8CF800300024D7
:1032FC00CDF813408DF81740FFF786FFFFF79AFFC4
:10330C00FFF782FE204606B010BD00BF0435000852
:10331C0008B5062000F02EF80120FEF7FDF800BFDE
:10332C00014B1868704700BF0C00002070B50D4EA3
:10333C000D4D761BB61006D0002455F8043B013415
:10334C009847A642F9D1094E094D761B00F0C8F8F2
:10335C00B61006D0002455F8043B01349847A64219
:10336C00F9D170BD14360008143600081C3600085C
:10337C001436000838B5154B1F281D6820D8D5F811
:10338C00DC22044662B152F820304BB1012B15D02F
:10339C00591C0FD0002542F820509847284638BDBC
:1033AC00284600F02BF8224601462846BDE8384056
:1033BC0000F00EB816232B60012038BD002038BD5C
:1033CC0016232B604FF0FF3038BD00BF0C000020DF
:1033DC0070B50C46084D03460026204611461C4687
:1033EC002E60FEF791F8431C00D070BD2B68002BAB
:1033FC00FBD0236070BD00BFB4060020FEF782B87E
:10340C00024B13B1024800F005B8704700000000F1
:10341C002D340008002301461A46184600F01AB84D
:10342C0038B5084B084D5B1B9C1007D0043B1D4462
:10343C00013C55F804399847002CF9D1BDE83840C7
:10344C0000F054B8203600081C360008704700BF46
:10345C00704700BF2DE9F047DFF87CA00646DAF88C
:10346C00000098460F469146FFF7F0FF1B4B1B6878
:10347C00D3F8484124B365681F2D26DC5EB96B1C5C
:10348C000235DAF80000636044F82570FFF7E0FFBE
:10349C000020BDE8F08704EB85010123C1F888907A
:1034AC00D4F88821AB401A43022EC4F88821C1F805
:1034BC000881E4D1D4F88C211343C4F88C31DEE7B5
:1034CC0003F5A674C3F84841D5E7DAF80000FFF716
:1034DC00BFFF4FF0FF30DCE7380400203035000828
:1034EC00F8B500BFF8BC08BC9E467047F8B500BFE5
:0834FC00F8BC08BC9E467047B5
:1035040054686973206973206120746573740000C2
:10351400000000000000000000000000010203049D
:10352400060708090000000001020304100000203F
:1035340008B10181B0B000840000000008B101812D
:08354400B0B00084000000009B
:10354C00D0CCFF7F0100000030D0FF7FB0A90280FB
:10355C00C4D0FF7FB0B0A88014D1FF7F0100000061
:10356C0020D1FF7FB0B0AA8054D1FF7FAE71B28062
:10357C0018D2FF7F0100000014D2FF7FAB3F3880D0
:10358C0074D2FF7F010000007CD2FF7FB0B0AA8014
:10359C00B8D2FF7F0100000064D3FF7FAA0DB28078
:1035AC00E0D3FF7FB0AF088080D6FF7F0100000022
:1035BC0084D6FF7FAD3F028000D9FF7F0100000061
:1035CC00DCDAFF7F00840480F0DAFF7F010000006A
:1035DC00ECDAFF7FB0AD048090DDFF7FB0A80380F4
:1035EC00B4DDFF7F44FFFF7FB8DDFF7F48FFFF7F27
:1035FC00C4DDFF7F01000000BCFCFF7FB0A805808C
:08360C0010FDFF7F010000002A
:083614000D340008D10100088B
:04361C00AD010008F4
:103620000024F40001000000100000001000002041
:1036300000000000FC02002064030020CC030020F6
:10364000000000000000000000000000000000007A
:10365000000000000000000000000000000000006A
:10366000000000000000000000000000000000005A
:10367000000000000000000000000000000000004A
:10368000000000000000000000000000000000003A
:10369000000000000000000000000000000000002A
:1036A000000000000000000000000000000000001A
:1036B000000000000000000000000000000000000A
:1036C00000000000000000000000000000000000FA
:1036D00000000000000000000100000000000000E9
:1036E0000E33CDAB34126DE6ECDE05000B000000AE
:1036F00000000000000000000000000000000000CA
:1037000000000000000000000000000000000000B9
:1037100000000000000000000000000000000000A9
:103720000000000000000000000000000000000099
:0C3A50000000000000000000B006002094
:0400000508001535A5
:00000001FF
